:020000040800F2
:10000000300A00201502000845110008A70A000860
:100010004111000811050008AB2100080000000094
:10002000000000000000000000000000651400084F
:100030001505000800000000C51200088D15000815
:100040002F0200082F0200082F0200082F020008CC
:100050002F0200082F02000819050008DD0500081E
:100060000106000825060008490600082F020008BE
:100070002F0200082F0200082F0200082F0200089C
:100080002F0200082F0200082F0200082F0200088C
:100090002F0200082F0200082F0200086D0600083A
:1000A0002F0200082F0200082F0200082F0200086C
:1000B0002F0200082F0200082F0200082F0200085C
:1000C0002F0200082F0200082F0200082F0200084C
:1000D0002F020008691F00082F0200082F020008E5
:1000E0003D0500082F0200082F0200082F0200081B
:1000F0002F0200082F0200082F0200082F0200081C
:100100002F0200082F020008891B00082F02000898
:100110002F0200082F020008B51B00082F0200085C
:100120002F0200082F0200082F0200082F020008EB
:1001300000F002F800F05FF80AA090E8000C82449A
:100140008344AAF10107DA4501D100F054F8AFF277
:10015000090EBAE80F0013F0010F18BFFB1A43F0A5
:10016000010318479C690000BC6900000A444FF075
:10017000000C10F8013B13F0070408BF10F8014B06
:100180001D1108BF10F8015B641E05D010F8016B4B
:10019000641E01F8016BF9D113F0080F1EBF10F8AF
:1001A000014BAD1C0C1B09D16D1E58BF01F801CBD2
:1001B000FAD505E014F8016B01F8016B6D1EF9D555
:1001C0009142D6D37047000000230024002500266A
:1001D000103A28BF78C1FBD8520728BF30C148BFAA
:1001E0000B607047782900F07780002070471FB5BA
:1001F0001FBD10B510BD00F059F91146FFF7F7FF0C
:1002000003F0BCFB00F077F903B4FFF7F2FF03BC87
:1002100001F0DDFF0948804709480047FEE7FEE797
:10022000FEE7FEE7FEE7FEE7FEE7FEE7FEE7FEE7A6
:1002300004480549054A064B70470000911500081F
:100240003101000830040020300A00203006002070
:1002500030060020704700000FB4044910B503AA0F
:10026000029800F0F5F810BC5DF814FB3400002093
:100270002DE9F0410E460446002020622046E16848
:10028000884730B3252805D0D4E901219047206A5A
:10029000401CF2E7E168204600278847050018D097
:1002A000A5F14100192802D820354FF400673246E5
:1002B000294620462760FFF795FF40B1012804D06A
:1002C000F61D26F007060836D8E7361DD6E728467D
:1002D000DAE7206ABDE8F08170B504460D46214694
:1002E0001068AFF300802188090502D50F4A7A44CF
:1002F00002E00E4A7A440E32002104F1240305E0A4
:1003000000F00F060009965D5E54491C0028F7D1E5
:1003100020780023000704D5702D02D009B10223F4
:1003200011322046BDE8704000F038B8E4670000A4
:1003300010B5203AC0F00B80B1E81850203AA0E880
:100340001850B1E81850A0E81850BFF4F5AF5FEAB4
:10035000027C24BFB1E81850A0E8185044BF18C967
:1003600018C0BDE810405FEA827C24BF51F8043B0E
:1003700040F8043B08BF7047D20728BF31F8023B62
:1003800048BF11F8012B28BF20F8023B48BF00F8F6
:10039000012B704770477047704770472DE9F04751
:1003A0000D4699469246044600F1240801688806E5
:1003B00004D5E06921F01001216000E00120A8428D
:1003C00001DD471B00E00027A1697A1902EB090053
:1003D000081AA0612078C00602D42046AFF300803E
:1003E000002608E0D4E901211AF806009047206AA7
:1003F000401C761C20624E45F4DB2078C0060AD5EE
:100400002046AFF3008006E0D4E901213020904778
:10041000206A401C2062381EA7F10107F4DC07E0C7
:10042000D4E9012118F805009047206A401C206299
:10043000281EA5F10105F3DC2046AFF300802078EB
:10044000000602D50220BDE8F0870120FBE700008E
:10045000074B70B50D467B4400F011F80446284662
:1004600000F020F810B14FF0FF3070BD204670BD95
:100470000323000001694A1C02610878704700B537
:100480008FB0CDE901310021059105497944CDE9CD
:10049000031011466846FFF7EBFE0FB000BD0000E9
:1004A000E5FFFFFF007B00F080007047754600F01D
:1004B0002BF8AE4605006946534620F007008546F6
:1004C00018B020B5FFF7B4FEBDE820404FF000069D
:1004D0004FF000074FF000084FF0000B21F007012C
:1004E000AC46ACE8C009ACE8C009ACE8C009ACE86F
:1004F000C0098D46704710B50446AFF30080204612
:10050000BDE81040FFF780BE00487047CC030020D4
:1005100000BFFEE77047000010B50A2001F07CFE26
:100520000121054800F0B2FA08B902F07DF9012076
:1005300000F0DAF810BD0000001C014010B50A20E0
:1005400001F06AFE4FF48061234800F09FFA08B979
:1005500002F0BCF94FF4806000F0C6F84FF400617F
:100560001D4800F093FA08B902F03EFA4FF400601B
:1005700000F0BAF84FF48051174800F087FA08B934
:1005800002F0C0FA4FF4805000F0AEF84FF4005182
:10059000114800F07BFA08B902F042FB4FF400501A
:1005A00000F0A2F84FF480410B4800F06FFA08B950
:1005B00002F08EFB4FF4804000F096F84FF40041BB
:1005C000054800F063FA08B902F072FC4FF40040ED
:1005D00000F08AF810BD0000001C014010B50A2090
:1005E00001F01AFE0221054800F050FA08B902F0A5
:1005F0009DFC022000F078F810BD0000001C0140B6
:1006000010B50A2001F008FE0421054800F03EFA6A
:1006100008B902F0DDFC042000F066F810BD00000F
:10062000001C014010B50A2001F0F6FD0821054824
:1006300000F02CFA08B902F01DFD082000F054F873
:1006400010BD0000001C014010B50A2001F0E4FDBF
:100650001021054800F01AFA08B902F05DFD1020DB
:1006600000F042F810BD0000001C014010B50A2047
:1006700001F0D2FD20211B4800F008FA08B902F071
:100680009DFD202000F030F84021164800F0FEF9D2
:1006900008B902F0E3FD402000F026F8802111485F
:1006A00000F0F4F908B902F02BFE802000F01CF8ED
:1006B0004FF480710B4800F0E9F908B902F072FEBE
:1006C0004FF4807000F010F84FF40071054800F00E
:1006D000DDF908B902F0B8FE4FF4007000F004F83C
:1006E00010BD0000001C0140014908607047000077
:1006F00014040140002123498279002A3AD00A4695
:10070000126803689A430B461A600A1D1268036850
:100710009A430B1D1A60027911440A6803681A4350
:100720000A60184A0832126803689A43154B083366
:100730001A601A1D126803689A43124B0C331A6030
:100740004279102A0ED11A1F126803681A430D4B02
:1007500008331A601A1D126803681A43094B0C33D8
:100760001A600DE00749427911440A6803681A4388
:100770000A6005E0027911440A6803689A430A6036
:10078000704700000004014051B18200A2F1C04254
:10079000126842F001038200A2F1C042136009E036
:1007A0008200A2F1C0421268034B1A408300A3F1F9
:1007B000C0431A6070470000FEFF0F00D0E901122D
:1007C0001143C268114302691143426911438269AE
:1007D0001143C2691143026A1143426A1143826A9A
:1007E0001143C26A1143026B114302689200A2F1E5
:1007F000C0421160816808290BD101688900A1F10C
:10080000C041096841F0400201688900A1F1C0417E
:100810000A60416B0968426B526841EA0211426BFF
:10082000926841EA0221426B928941EA0241426B9D
:10083000128A41EA0251426B127D41EA0261426B27
:10084000926911430268521C9200A2F1C0421160E9
:10085000C16AB1F5804F1BD1816B0968826B526808
:1008600041EA0211826B926841EA0221826B128A8C
:1008700041EA0251826B127D41EA0261826B926908
:10088000114302689200A2F1C042C2F8041107E0CD
:100890006FF0704201688900A1F1C041C1F80421E4
:1008A0007047000030B500228B071C0F0F2303FA9E
:1008B00004F20B4B8C1053F824309343084C8D10EA
:1008C00044F8253023468C1053F824308C07240F2D
:1008D00000FA04F42343024C8D1044F8253030BD57
:1008E000080001402DE9F0410246002500260020C5
:1008F00000230024002791F803C00CF00F0591F8A5
:1009000003C00CF0100CBCF1000F03D091F802C032
:100910004CEA050591F800C0BCF1000F31D0146815
:1009200000202BE04FF0010C0CFA00F3B1F800C0EE
:100930000CEA03069E4220D183004FF00F0C0CFA04
:1009400003F7BC4305FA03FC4CEA040491F803C026
:10095000BCF1280F06D14FF0010C0CFA00FCC2F8D4
:1009600014C00AE091F803C0BCF1480F05D14FF064
:10097000010C0CFA00FCC2F810C0401C0828D1D3AE
:100980001460B1F800C0BCF1FF0F34DD54680020E2
:100990002EE000F1080C4FF0010808FA0CF3B1F852
:1009A00000C00CEA03069E4221D183004FF00F0CD9
:1009B0000CFA03F7BC4305FA03FC4CEA040491F873
:1009C00003C0BCF1280F05D100F1080C08FA0CF89F
:1009D000C2F8148091F803C0BCF1480F07D100F1B0
:1009E000080C4FF0010808FA0CF8C2F81080401CFF
:1009F0000828CED35460BDE8F0810000F0B50A4667
:100A0000002300240021002500F00046B6F1004F2D
:100A100002D11D4EF16901E01B4E7168C0F3034520
:100A200083B200F44016B6F5401F08D121F0706182
:100A3000154E766826F07066134F7E6012E000F463
:100A40008016B6F5801F06D1032606FA05F4A143E9
:100A500041F0706106E0460D360103FA06F6B14337
:100A600041F0706122B1460D360103FA06F63143BA
:100A700000F00046B6F1004F02D1034EF16101E0F3
:100A8000014E7160F0BD00000000014002460020F0
:100A900093680B400BB1012000E0002070474161DA
:100AA00070470161704700BFFEE7000010B500F01D
:100AB000C7FC40210A48FFF7F4FF80210848FFF7F0
:100AC000F0FF052001F0CEFB80210548FFF7E7FF8E
:100AD000052001F0C7FB40210148FFF7E0FF10BDF2
:100AE000000C014010B500F0ABFC40210C48FFF7B2
:100AF000D6FF80210A48FFF7D2FF052001F0B2FBA4
:100B000040210748FFF7CDFF052001F0ABFB802116
:100B10000348FFF7C6FF052001F0A4FB10BD00004D
:100B2000000C014010B540210B48FFF7B8FF00F062
:100B300087FC80210848FFF7B2FF022001F092FBFA
:100B400040210548FFF7ADFF022001F08BFB40215B
:100B50000148FFF7A4FF10BD000C014010B5402173
:100B60000B48FFF79CFF00F06BFC80210848FFF763
:100B700098FF022001F076FB40210548FFF791FF26
:100B8000022001F06FFB40210148FFF788FF10BDF4
:100B9000000C014010B5002400F040FC80211148F9
:100BA000FFF77FFF012001F05DFB40210D48FFF7BB
:100BB00078FF012001F056FB07E0601CC4B2FA2C5C
:100BC00003DDFFF78FFF012010BD80210548FFF7EF
:100BD0005DFF0028F1D140210248FFF760FF0020AF
:100BE000F2E70000000C0140024800680249086179
:100BF0007047000078000020B00300200248006821
:100C00000249C8607047000078000020B00300204F
:100C100002480068024988607047000078000020A0
:100C2000B003002070B506460F484088401E83B2CE
:100C30000D480088401E82B20021084600F009F9E4
:100C400000240CE0002504E0304600F073FA681C34
:100C500085B205484088A842F6DC601C84B2024890
:100C60000088A042EEDC70BDD802002000B502462C
:100C70007AB9362000F052FA002000F055FA4FF40D
:100C8000F0700C4948804FF4A070088000208871F3
:100C90000EE0362000F042FA602000F045FA4FF4F2
:100CA000A070044948804FF4F070088001208871DA
:100CB00000BD0000D802002070B504460D4616465F
:100CC0002B4622462946204600F0C3F8304600F065
:100CD00031FA70BD2DE9FF4F84B081468A4600206D
:100CE000039002900698A0EB09050798A0EB0A066E
:100CF000CDF80490CDF800A0002D01DD012705E01E
:100D00000DB9002702E04FF0FF376D42002E02DDE3
:100D10004FF0010806E016B94FF0000802E04FF06E
:100D2000FF387642B54201DD2C4600E034464FF0F4
:100D3000000B21E0009A91B2019A90B200F022F8E3
:100D40000398284403900298304402900398A042EC
:100D500005DD0398001B0390019838440190029828
:100D6000A04205DD0298001B0290009840440090CC
:100D70000BF101001FFA80FB601C8345DADD08B02F
:100D8000BDE8F08F30B504460D462B462246294675
:100D9000204600F05EF80248008800F0CBF930BD34
:100DA000D4020020F0B504460D4616461F462B46D9
:100DB000324629462046FFF78DFF3B46224629460C
:100DC0002046FFF787FF3B46324639462046FFF76D
:100DD00081FF3B46324629463046FFF77BFFF0BD98
:100DE0002DE9F04304460D4616461F46DDF81C80EB
:100DF000B44201DCBD4201DDBDE8F0833B46324632
:100E00002946204600F025F8301B401C84B2781B90
:100E1000401C85B20BE0A94602E0404600F08AF98A
:100E2000B9F10000A9F101011FFA81F9F5D1201EE5
:100E3000A4F101018CB2EED100BFDDE710B502468E
:100E4000012000E050430B1EA1F10104E1B2F9D1F1
:100E500010BD70B504460D462A2000F05FF9264605
:100E6000E11704EB1161C1F30F2000F05DF9E11708
:100E700004EB11610912A4EB012188B200F054F9CE
:100E80001646D11702EB1161C1F30F2000F04CF9A7
:100E90001646D11702EB11610912A2EB012188B2AB
:100EA00000F042F92B2000F039F92E46E91705EB46
:100EB0001161C1F30F2000F037F9E91705EB11615B
:100EC0000912A5EB012188B200F02EF91E46D917B0
:100ED00003EB1161C1F30F2000F026F91E46D9176C
:100EE00003EB11610912A3EB012188B200F01CF998
:100EF0002C2000F013F970BD2DE9F84F80460E4606
:100F000017461C46B3462046E31704EB5373DB1029
:100F100021464FEAE47C04EB5C7C4FEAEC0CA4EB4A
:100F2000CC0CBCF1000F02D04FF0010C01E04FF0EF
:100F3000000C6344224604EBD27C4FEA6C0C03FBAA
:100F40000CF3DBB20093A7F12000C7B2002556E0F6
:100F50000C2C07D107EB47002B4901EB800010F860
:100F6000059013E0102C05D1284800EB071010F86D
:100F700005900BE0182C07D107EBC700244901EBC3
:100F8000800010F8059001E0BDE8F88F4FF0000AEE
:100F90002FE009F0800030B11E48028831464046FB
:100FA000FFF78AFE07E00A9828B91B4802883146F5
:100FB0004046FFF781FE4FEA49604FEA1069701C16
:100FC00086B216484088B04200DCDDE7A6EB0B0095
:100FD000A0420AD15E4608F101001FFA80F80F48CE
:100FE0000088404500DCCFE706E00AF1010000F090
:100FF000FF0ABAF1080FCCDB00BF681CC5B200982D
:101000008542A5DB00BFBFE7165300088A570008DA
:101010007A5D0008D4020020D6020020D802002009
:101020002DE9FF4F81B0074691461E460E9D4FF0B9
:10103000000A002439E0301B401EC1B20A20FFF72D
:10104000FDFEB9FBF0F00A21B0FBF1F201FB120842
:10105000BAF1000F16D1701EA04213DDB8F1000FD7
:101060000ED10020AB4605EBDB71491001FB04718A
:10107000009088B22B4620220299FFF73DFF12E034
:101080004FF0010A0020AB4605EBDB71491001FB74
:101090000471009088B208F13001CAB22B4602995F
:1010A000FFF72AFF00BF601CC4B2B442C3DB05B027
:1010B000BDE8F08F2DE9F84704460D469046994665
:1010C000DDE9096704F0FF0A08EB04001FFA80F865
:1010D00009EB05001FFA80F916E0444502DB54468F
:1010E000A81985B24D4500DB14E0002000903A7845
:1010F000334629462046FFF7FFFE304606EBD07107
:1011000004EB61018CB27F1C38787E2802DC3878D1
:101110002028E2DA00BFBDE8F88700000149088016
:1011200070470000FE07006C01490880704700000E
:101130000008006C01490880704700000008006C3E
:1011400000BFFEE77047000070B5002100230F22AA
:10115000C47804B3154C246804F4E064C4F5E06476
:10116000210AC1F10403CA40447804FA03F18478E7
:101170001440214309010E4C0678A155047804F06F
:101180001F050124AC4005786D11AD0005F1E02587
:10119000C5F8004109E0047804F01F050124AC40C3
:1011A000044D0678761145F8264070BD0CED00E040
:1011B00000E400E080E100E002490143024A1160DE
:1011C000704700000000FA050CED00E02DE9F04149
:1011D00086B0042204A9002000F010F9042202A91C
:1011E000052000F00BF9042269460A2000F006F9F8
:1011F0009DF810103039642251439DF81220303A86
:1012000002EB820201EB42029DF8131030395018B4
:1012100003F0AAFE804603F01BFD06460022274B82
:1012200003F0D6F9044603F0F9F8254988609DF8E3
:1012300008103039642251439DF80A20303A02EBFD
:10124000820201EB42029DF80B103039501803F076
:101250008BFE804603F0FCFC06460022174B03F091
:10126000B7F9044603F0DAF81549C8609DF8001094
:101270003039642251439DF80220303A02EB820259
:1012800001EB42029DF803103039501803F06CFE58
:10129000804603F0DDFC06460022084B03F098F977
:1012A000044603F0BBF80649086100200860486066
:1012B0004861886106B0BDE8F08100000000594037
:1012C000B00300207047000029B1064A526902436A
:1012D000044B5A6104E0034A52698243014B5A614C
:1012E000704700000010024029B1064AD26902434B
:1012F000044BDA6104E0034AD2698243014BDA61AC
:10130000704700000010024029B1064A926902436A
:10131000044B9A6104E0034A92698243014B9A614B
:10132000704700000010024030B500210022002468
:1013300000232D4D6D6805F00C0121B1042905D065
:10134000082923D105E0294D056022E0274D0560DD
:101350001FE0254D6D6805F47012234D6D6805F48E
:101360008034022505EB92421CB9214D554305609E
:101370000BE01D4D6D6805F400351DB11C4D554346
:10138000056002E0194D5543056002E0174D056008
:1013900000BF00BF144D6D6805F0F0010909154D3F
:1013A0006B5C0568DD4045600F4D6D6805F4E061DC
:1013B000090A104D6B5C4568DD4085600A4D6D681B
:1013C00005F46051C90A0B4D6B5C4568DD40C56092
:1013D000054D6D6805F44041890B074D6B5CC56890
:1013E000B5FBF3F5056130BD0010024000127A0034
:1013F00000093D001C0000202C00002070B50646AE
:101400000C46154606E03046761C02F02FFD04F827
:10141000010B6D1E002DF6D170BD000008B54820EF
:101420008DF803008020ADF8000003208DF8020045
:1014300069460248FFF756FA08BD0000000C01405B
:1014400008B510208DF803008020ADF800000320BF
:101450008DF8020069460248FFF744FA08BD000013
:10146000000C0140704710B500F002F810BD0000FC
:101470000CB50020019000903348006840F48030A3
:101480003149086000BF3048006800F40030009027
:101490000198401C0190009818B90198B0F5A06F10
:1014A000F1D12948006800F4003010B1012000900B
:1014B00001E0002000900098012843D123480068F3
:1014C00040F01000214908600846006820F0030041
:1014D00008600846006840F0020008601A4840684A
:1014E000194948600846406848600846406840F42A
:1014F000806048600846406820F47C1048600846D8
:10150000406840F4E81048600846006840F0807089
:10151000086000BF0C48006800F000700028F9D097
:101520000948406820F003000749486008464068C1
:1015300040F00200486000BF0348406800F00C0023
:101540000828F9D10CBD0000001002400020024024
:101550000248006802490860704700007C000020D3
:1015600004000020042808D14FF0E021096941F06F
:1015700004014FF0E022116107E04FF0E02109691A
:1015800021F004014FF0E022116170477047000024
:1015900010B51348006840F0010011490860084682
:1015A0004068104908400E494860084600680E49E6
:1015B00008400B4908600846006820F48020086055
:1015C0000846406820F4FE0048604FF41F00886021
:1015D000FFF749FF4FF000600449086010BD0000AC
:1015E000001002400000FFF8FFFFF6FE08ED00E0EB
:1015F00000B59DB001210802FFF766FE01200790AB
:10160000002008900F20099000200A900B900C9069
:101610000D9015200090019005200290002003906D
:1016200004900590069006200E9000200F901090D8
:101630001020119000201290149013901590169085
:101640004FF480501790002018904FF4804019906C
:1016500000201A9007A81B90CDF870D00EA8FFF7B5
:10166000ADF801210620FFF78FF81DB000BD000086
:1016700008B501214FF4B070FFF746FE4CF233700D
:10168000ADF8000018208DF8030003208DF802004B
:1016900069461048FFF726F94FF68070ADF8000054
:1016A00018208DF8030003208DF8020069460A48CF
:1016B000FFF718F941F20100ADF8000018208DF88D
:1016C000030003208DF8020069460448FFF70AF979
:1016D00008BD000000140140001801400020014036
:1016E00010B5FFF7C5FFFFF783FF322000F094FD30
:1016F000D320FFF713FD8E4800888E4988808C48E0
:10170000008888808A4800888880084680884FF64C
:10171000FF7101EA00208749888008468088844953
:1017200009880843834988800846818882A0FEF79B
:1017300093FDB020FFF7F2FC0020FFF7F5FC11202D
:10174000FFF7ECFC142000F067FDB320FFF7E6FC88
:101750000220FFF7E9FC0020FFF7E6FC0020FFF77E
:10176000E3FC0020FFF7E0FCC020FFF7D7FC1020CF
:10177000FFF7DAFC3B20FFF7D7FC0020FFF7D4FC93
:101780000220FFF7D1FC0020FFF7CEFC0120FFF77D
:10179000CBFC0020FFF7C8FC4320FFF7C5FCC120AD
:1017A000FFF7BCFC1020FFF7BFFC1020FFF7BCFCCC
:1017B0000820FFF7B9FC0820FFF7B6FCC420FFF7AC
:1017C000ADFC1120FFF7B0FC0720FFF7ADFC0320B4
:1017D000FFF7AAFC0320FFF7A7FCC620FFF79EFC3B
:1017E0000020FFF7A1FCC820FFF798FC0320FFF7BB
:1017F0009BFC0320FFF798FC1320FFF795FC5C206F
:10180000FFF792FC0320FFF78FFC0720FFF78CFC0B
:101810001420FFF789FC0820FFF786FC0020FFF763
:1018200083FC2120FFF780FC0820FFF77DFC1420BB
:10183000FFF77AFC0720FFF777FC5320FFF774FCD3
:101840000C20FFF771FC1320FFF76EFC0320FFF75D
:101850006BFC0320FFF768FC2120FFF765FC0020EC
:10186000FFF762FC3520FFF759FC0020FFF75CFC16
:101870003620FFF753FC0020FFF756FC3A20FFF715
:101880004DFC5520FFF750FC4420FFF747FC00209B
:10189000FFF74AFC0120FFF747FCB620FFF73EFCAC
:1018A0000020FFF741FC2220FFF73EFC3B20FFF722
:1018B0003BFCD020FFF732FC0720FFF735FC072068
:1018C000FFF732FC1D20FFF72FFCD120FFF726FC8D
:1018D0000020FFF729FC0320FFF726FC0020FFF77C
:1018E00023FCD220FFF71AFC0320FFF71DFC142075
:1018F000FFF71AFC0420FFF717FC2920FFF70EFC66
:10190000142000F089FCB420FFF708FC0020FFF74A
:101910000BFC142000F080FC2C20FFF7FFFB0020C4
:10192000FFF7A4F94FF6FF70FFF77CF910BD000038
:101930000008006CD8020020204C43442049443A5F
:1019400025780D0A00000000F0B50C46154600226F
:101950000021068C4FF6FE773E400684028B018CF8
:101960004FF60C7632407E1C06EA03162E433243B5
:10197000104EB0420ED0104EB0420BD0B0F1804F9E
:1019800008D00E4EB04205D00D4EB04202D00D4EE2
:10199000B04206D14FF6FD76314044F001063143A6
:1019A00005E04FF6F576314044F0010631430283FD
:1019B0000184F0BD002C01400034014000040040CF
:1019C00000080040000C0040F0B50C46154600220F
:1019D00000210026078C4FF6EF7C07EA0C070784EE
:1019E000028B018C4FF6FF7707EA041640F6FF479B
:1019F0003A404FF6FF7707EA03373A434FF6FF774F
:101A000007EA05273A43114FB8420ED0104FB842AB
:101A10000BD0B0F1804F08D00E4FB84205D00E4F1A
:101A2000B84202D00D4FB84206D14FF6DF773940A9
:101A300046F01007394305E04FF65F77394044F030
:101A40001007394302830184F0BD0000002C0140DF
:101A5000003401400004004000080040000C004039
:101A6000F0B50C461546002200210026078C4FF6E3
:101A7000FF6C07EA0C070784828B018C4FF6FF7717
:101A800007EA04264FF60C773A404FF6FF7707EA4D
:101A900003172F433A43114FB8420ED0104FB842AC
:101AA0000BD0B0F1804F08D00E4FB84205D00E4F8A
:101AB000B84202D00D4FB84206D14FF6FF57394019
:101AC00046F48077394305E04FF2FF57394044F43C
:101AD0008077394382830184F0BD0000002C0140EF
:101AE000003401400004004000080040000C0040A9
:101AF000F0B50C461546002200210026078C4EF654
:101B0000FF7C07EA0C070784828B018C4FF6FF7776
:101B100007EA043640F6FF473A404FF6FF7707EAF8
:101B200005273A434FF6FF7707EA03373A43114F49
:101B3000B8420ED0104FB8420BD0B0F1804F08D051
:101B40000E4FB84205D00E4FB84202D00D4FB842EA
:101B500006D14DF6FF77394046F48057394305E00A
:101B600047F6FF57394044F4805739438283018454
:101B7000F0BD0000002C0140003401400004004092
:101B800000080040000C004010B50221074800F09A
:101B9000A4F8012808D106480068401C04490860E0
:101BA0000221024800F07BF810BD0000000C00404C
:101BB0003C0000202DE9F0410121284800F08DF87B
:101BC000012849D126480068401C2549086025485D
:101BD0000068401C2349086023480078401C2249C3
:101BE000087001211D4800F057F81D480068B0F545
:101BF0007A7F22D300201A4908601C48006803F04D
:101C0000B3F9804603F024F806460022184B02F090
:101C1000DFFC044602F002FC164908601348006825
:101C200003F0A2F90446144903F0A0F81349086030
:101C300001F040FF00200D4908600B4800780A2899
:101C40000ADB0020084908700C48006803F06CF9B2
:101C500084B2204601F03EFEBDE8F0810010004055
:101C60006C00002070000020740000203C00002068
:101C700000E07440A00000200000A74340000020C6
:101C800021B1028842F08002028004E002884FF60F
:101C90007F731A4002807047CA4302827047CA436A
:101CA0000282704721B1028842F00102028004E002
:101CB00002884FF6FE731A400280704731B1B0F8C7
:101CC000442042F40042A0F8442005E0B0F844204B
:101CD000C2F30E02A0F84420704730B5024600203F
:101CE00000230024158A05EA0103958905EA010409
:101CF00013B10CB1012000E0002030BD70B50546E5
:101D00000C46244885420ED0234885420BD0B5F1BD
:101D1000804F08D02148854205D02148854202D015
:101D20002048854200D100E000BF208850B92389B7
:101D3000A28861882846FFF707FEE188284600F060
:101D400094F825E0208804280AD12389A288618894
:101D50002846FFF739FEE188284600F08FF817E0A3
:101D6000208808280AD12389A28861882846FFF79D
:101D700077FEE188284600F08EF809E02389A288E2
:101D800061882846FFF7B4FEE188284600F08CF809
:101D900070BD0000002C01400034014000040040F0
:101DA00000080040000C00401AB183890B43838176
:101DB00002E083898B4383817047000070B5002463
:101DC00000220023058C4FF6FE7635400584028CF8
:101DD0008388048B4FF68F752C40B51E2C400D88E0
:101DE0002C43751E2A400D892A434D882A43144DE1
:101DF000A8420BD0134DA84208D0134DA84205D0DD
:101E0000124DA84202D0124DA84213D14FF6F775D9
:101E10002A404D892A434FF6FB752A408D882A4374
:101E20004FF6FF652B404FF6FF552B408D892B4316
:101E3000CD892B4383800483CD888586028470BD41
:101E4000002C0140003401400040014000440140AA
:101E5000004801400A460021018B4FF6F7731940F4
:101E600011430183704781867047028B4FF6F373ED
:101E70001A400283028B0A4302837047028B4FF29F
:101E8000FF331A400283028B4FF6FF7303EA0123EC
:101E90001A4302837047828B4FF6F3731A40828392
:101EA000828B0A4382837047828B4FF2FF331A4042
:101EB0008283828B4FF6FF7303EA01231A438283E6
:101EC00070470000002202881D4B98420ED01D4B27
:101ED00098420BD0B0F1804F08D01B4B984205D0F0
:101EE0001A4B984202D01A4B984204D14FF68F7386
:101EF0001A404B881A43174B984207D0164B98420A
:101F000004D04FF6FF431A40CB881A4302808B88D7
:101F100083850B8803850A4B98420BD0094B984266
:101F200008D00E4B984205D00D4B984202D00D4B75
:101F3000984201D10B7A0386012383827047000007
:101F4000002C014000340140000400400008004023
:101F5000000C004000100040001400400040014010
:101F6000004401400048014010B540F225511D4891
:101F700000F057F810B31B4800F00EF9C4B21A482D
:101F8000008800F40040C8B91748008800F4804079
:101F900060B10A2C03D000201349088020E01248C9
:101FA000008840F400401049088019E00D2C06D14B
:101FB0000D48008840F480400B49088010E00A4832
:101FC0000088C0F30D0009490C5407480088401CE4
:101FD0000549088008460088C72801DD00200880E0
:101FE00010BD00000038014038000020E802002049
:101FF00021B1828942F40052828104E082894DF647
:10200000FF731A408281704702460020B1F5007FBD
:1020100000D100BF13880B400BB1012000E000206D
:10202000704770B50246002400230025002040F6CA
:102030006A16B14200D100BFC1F3421501F01F037F
:10204000012606FA03F3012D02D19689334006E0FA
:10205000022D02D1168A334001E0968A33400C12D9
:10206000012606FA04F41688344013B10CB101209D
:1020700000E0002070BDF0B50346002400260025D6
:10208000002040F66A17B94200D100BF1846C1F3DC
:10209000421401F01F06012707FA06F5012C01D1B1
:1020A0000C3004E0022C01D1103000E014301AB1E1
:1020B00007682F43076002E00768AF430760F0BD81
:1020C0002DE9F04786B005460E460024A24600BF23
:1020D000A1460027B08900B100BF2F462C8A4CF6DC
:1020E000FF700440F08804432C82AC894EF6F31054
:1020F0000440B08831890843718908430443AC81A6
:10210000AC8A4FF6FF400440B0890443AC8201A87A
:10211000FFF70AF91F48874202D1DDF810A001E05D
:10212000DDF80CA0A88900F4004040B10AEBCA0019
:1021300000EB0A1031684900B0FBF1F807E00AEB48
:10214000CA0000EB0A1031688900B0FBF1F8642086
:10215000B8FBF0F004012009642101FB1089A88973
:1021600000F4004040B1322000EBC900B0FBF1F0B8
:1021700000F00700044308E0322000EB091064215E
:10218000B0FBF1F000F00F0004432C8106B0BDE875
:10219000F08700000038014001468888C0F308003D
:1021A0007047C1F308028280704700BFFEE770B538
:1021B00005460C46164605E02178284602F010F93F
:1021C0006D1C641C301EA6F10106F5D170BD0146E0
:1021D00000BF704710B56FF00400FFF7C3F90A485D
:1021E00000680A49B0FBF1F0094908700846007818
:1021F00000EB4001C1EBC0104FF6FF7101EAC000D7
:102200000449088010BD00000800002000127A0078
:1022100030000020320000200146114A12884A4353
:102220004FF0E0235A6100229A611A46126942F087
:1022300001021A6100BF4FF0E022106900F00102B4
:102240001AB100F48032002AF5D04FF0E022126972
:1022500022F001024FF0E0231A6100229A617047D8
:10226000320000200146114A12784A434FF0E02321
:102270005A6100229A611A46126942F001021A61FB
:1022800000BF4FF0E022106900F001021AB100F423
:102290008032002AF5D04FF0E022126922F00102CC
:1022A0004FF0E0231A6100229A617047300000204D
:1022B00000B589B001210820FFF716F8012105209B
:1022C000FFF722F804208DF823000120ADF820004C
:1022D00003208DF8220008A91D48FEF703FB00200B
:1022E000ADF81A00ADF8160040F28330ADF81800D2
:1022F0000020ADF8140005A91648FFF7E3FD002003
:10230000ADF80800ADF81000ADF80A00ADF80E0009
:102310000120ADF80C0002A90F48FFF7EFFC0122E5
:1023200002210D48FFF740FD32208DF80400012006
:102330008DF807008DF8050000208DF8060001A833
:10234000FEF702FF01210448FFF7ACFC09B000BD15
:1023500000080140002C0140000C00400EB500F0C8
:10236000D1FD01210846FEF7CFFF00210520FEF731
:1023700099FA012001908DF80A0000208DF80800DC
:102380000C208DF8090001A8FEF7B4F906208DF89D
:10239000000001208DF803008DF801008DF8020087
:1023A0006846FEF7D1FE01210520FEF77BFA0220E8
:1023B000019001208DF80A0000208DF808000C2003
:1023C0008DF8090001A8FEF795F907208DF80000A7
:1023D00001208DF803008DF801008DF80200684699
:1023E000FEF7B2FE02210520FEF75CFA0420019000
:1023F00001208DF80A0000208DF808000C208DF8CF
:10240000090001A8FEF776F908208DF800000120E8
:102410008DF803008DF801008DF802006846FEF784
:1024200093FE03210520FEF73DFA082001900120CC
:102430008DF80A0000208DF808000C208DF80900A6
:1024400001A8FEF757F909208DF8000001208DF84A
:1024500003008DF801008DF802006846FEF774FE57
:1024600004210520FEF71EFA1020019001208DF8AE
:102470000A0000208DF808000C208DF8090001A842
:10248000FEF738F90A208DF8000001208DF80300CE
:102490008DF801008DF802006846FEF755FE052113
:1024A0000846FEF7FFF92020019001208DF80A0070
:1024B00000208DF808000C208DF8090001A8FEF717
:1024C00019F917208DF8000001208DF803008DF810
:1024D00001008DF802006846FEF736FE0621052051
:1024E000FEF7E0F94020019001208DF80A0000205D
:1024F0008DF808000C208DF8090001A8FEF7FAF805
:1025000017208DF8000001208DF803008DF80100E0
:102510008DF802006846FEF717FE07210520FEF73A
:10252000C1F98020019001208DF80A0000208DF86B
:1025300008000C208DF8090001A8FEF7DBF8172031
:102540008DF8000001208DF803008DF801008DF852
:1025500002006846FEF7F8FD08210520FEF7A2F903
:102560004FF48070019001208DF80A0000208DF852
:1025700008000C208DF8090001A8FEF7BBF8172011
:102580008DF8000001208DF803008DF801008DF812
:1025900002006846FEF7D8FD09210520FEF782F902
:1025A0004FF40070019001208DF80A0000208DF892
:1025B00008000C208DF8090001A8FEF79BF81720F1
:1025C0008DF8000001208DF803008DF801008DF8D2
:1025D00002006846FEF7B8FD0A210520FEF762F901
:1025E0004FF48060019001208DF80A0000208DF8E2
:1025F00008000C208DF8090001A8FEF77BF82820C0
:102600008DF8000001208DF803008DF801008DF891
:1026100002006846FEF798FD0B210520FEF742F9FF
:102620004FF40060019001208DF80A0000208DF821
:1026300008000C208DF8090001A8FEF75BF828209F
:102640008DF8000001208DF803008DF801008DF851
:1026500002006846FEF778FD0C210520FEF722F9FE
:102660004FF48050019001208DF80A0000208DF871
:1026700008000C208DF8090001A8FEF73BF828207F
:102680008DF8000001208DF803008DF801008DF811
:1026900002006846FEF758FD0D210520FEF702F9FD
:1026A0004FF40050019001208DF80A0000208DF8B1
:1026B00008000C208DF8090001A8FEF71BF828205F
:1026C0008DF8000001208DF803008DF801008DF8D1
:1026D00002006846FEF738FD0E210520FEF7E2F8FD
:1026E0004FF48040019001208DF80A0000208DF801
:1026F00008000C208DF8090001A8FDF7FBFF282039
:102700008DF8000001208DF803008DF801008DF890
:1027100002006846FEF718FD0F210520FEF7C2F8FB
:102720004FF40040019001208DF80A0000208DF840
:1027300008000C208DF8090001A8FDF7DBFF282018
:102740008DF8000001208DF803008DF801008DF850
:1027500002006846FEF7F8FC0EBD000000BF054A07
:10276000128802F04002002AF9D0C2B2014B1B1DB0
:102770001A8070470038014008B501210820FEF793
:10278000C3FD10208DF80300C020ADF80000032029
:102790008DF8020069460648FEF7A4F84021044877
:1027A000FEF77FF980210248FEF77BF908BD0000A3
:1027B000000C01401CB51949086902F099FB303042
:1027C000C0B28DF800002E208DF801001349086971
:1027D000134902F0F5FB044602F08AFB0A2190FB44
:1027E000F1F201FB12003030C0B28DF802000B494B
:1027F00008690C4902F0E4FB044602F079FB0A2167
:1028000090FBF1F201FB12003030C0B28DF80300F2
:10281000042269460A20FFF7CAFC1CBDB003002051
:10282000000020410000C84208B52148006800EBC4
:102830008000002101EB40001D49086010201D4967
:1028400000900988373188B2012300224FF4A0712B
:10285000FEF7E6FB17480068103016490860164876
:102860000078012805D11548007810B9144800787F
:1028700098B11148007830B910480078012802D189
:102880000F48007848B10C48007878B90B480078B8
:1028900060B90B480078012808D10A48007801285F
:1028A00004D109480078401C0749087008BD0000A1
:1028B000B0000020CC020020B4000020B5000020B1
:1028C000B6000020C1000020C00000202DE9FC411E
:1028D0003948007818B901203749087006E03648B1
:1028E0000078012802D1002033490870324800786E
:1028F000002838D131480078002834D13048007899
:10290000002830D12F48006802F046FB2E490860AD
:102910002E4800782E49087012E02B48006802F01B
:1029200097F9064600222B4B01F052FE044601F0B7
:1029300075FD2549086026480078401E2449087026
:10294000234800780028E8DC1F4800682249086016
:10295000FEF75EF900F004FE00201A4908601B49EA
:1029600008701E49086014480078012809D11C48E5
:1029700010210F236422CDE900100021A020FEF7D2
:1029800099FB0D480078A8B9164810210F2364223E
:10299000CDE900100021A020FEF78CFB114810218A
:1029A0000F234FF49672CDE900104FF4A071372039
:1029B000FEF780FBBDE8FC81B4000020B5000020DC
:1029C000B6000020B0000020BC000020C0000020A5
:1029D000C20000200000244078000020CC0200202B
:1029E000C3000020D70000202DE9FC4139480078C1
:1029F00018B901203749087006E0364800780128E8
:102A000002D100203349087033480078002838D1BB
:102A100030480078002834D130480078002830D180
:102A20002F48006802F0B8FA2E4908602E48007856
:102A30002E49087012E02B48006802F009F906469A
:102A400000222B4B01F0C4FD044601F0E7FC2549B0
:102A5000086026480078401E244908702348007802
:102A60000028E8DC1F48006822490860FEF7C6F825
:102A700000F03CFD00201A4908601B4908701E49FF
:102A8000086014480078012809D11C4810210F2340
:102A90006422CDE900101121A020FEF70BFB0D48A8
:102AA0000078A8B9164810210F236422CDE9001040
:102AB0001121A020FEF7FEFA114810210F234FF438
:102AC0009672CDE900104FF4A0713720FEF7F2FAAC
:102AD000BDE8FC81B5000020B4000020B600002055
:102AE000B0000020BC000020C0000020C200002078
:102AF0000000244078000020CC020020C300002009
:102B0000D70000202DE9FC413948007818B9012090
:102B10003749087006E036480078012802D10020C5
:102B20003349087033480078002838D1324800789B
:102B3000002834D12E480078002830D12F48006872
:102B400002F02AFA2E4908602E4800782E490870B3
:102B500012E02B48006802F07BF8064600222B4B5F
:102B600001F036FD044601F059FC2549086026486D
:102B70000078401E24490870234800780028E8DCCB
:102B80001F48006822490860FEF72EF8FFF712FE82
:102B900000201A4908601B4908701E490860144843
:102BA0000078012809D11C4810210F236422CDE9A7
:102BB00000102221A020FEF77DFA0D480078A8B968
:102BC000164810210F236422CDE900102221A020F5
:102BD000FEF770FA114810210F234FF49672CDE9D9
:102BE00000104FF4A0713720FEF764FABDE8FC81B5
:102BF000B6000020B4000020B5000020B000002086
:102C0000BC000020C0000020C200002000002440C2
:102C100078000020CC020020C3000020D700002054
:102C20001CB52448007818B901202249087006E034
:102C300020480078012802D100201E4908701D4854
:102C4000007870B91C4800681C490860FEF780FCD9
:102C500001F060F900201849086019490870194905
:102C6000086014480078012809D1174810210F2363
:102C70006422CDE900103321A020FEF71BFA0D4895
:102C80000078A8B9114810210F236422CDE9001063
:102C90003321A020FEF70EFA0C4810210F234FF429
:102CA0009672CDE900104FF4A0713720FEF702FABA
:102CB0001CBD0000B7000020B00000207C000020F8
:102CC000C0000020CC020020C3000020D70000205C
:102CD00000B5B3B020226F492BA8FDF729FB2022B5
:102CE0006C49203123A8FDF723FB2022694940319C
:102CF0001BA8FDF71DFB20226649603113A8FDF7D4
:102D000017FB2022634980310BA8FDF711FB20221D
:102D10006049A03103A8FDF70BFB5F480078062847
:102D200079D2DFE800F0031F3C5A799700205B4915
:102D300008705B4908705B4908705B4908705B4923
:102D4000087003A810210F236422CDE900104FF46E
:102D5000CD712520FEF7AEF94F480078401C4E4952
:102D6000087093E001204D49087000204C4908701C
:102D70004C4908704C4908704C4908704648007826
:102D8000401C454908702BA810210F236422CDE96F
:102D900000104FF4CD712520FEF78CF976E000206D
:102DA0003E49087001203E49087000203D490870E6
:102DB0003D4908703D49087037480078401C364945
:102DC000087023A810210F236422CDE900104FF4CE
:102DD000CD712520FEF76EF958E000202F490870CC
:102DE0002F49087001202F49087000202E490870D3
:102DF0002E49087028480078401C274908701BA8F5
:102E000010210F236422CDE900104FF4CD7125204D
:102E1000FEF750F93AE038E00020204908702049D8
:102E200008702049087001201F49087000201F49C0
:102E3000087019480078401C1749087013A8102121
:102E40000F236422CDE900104FF4CD712520FEF749
:102E500031F91BE00020114908701149087011492F
:102E600008701149087001201049087000200A49B3
:102E700008700BA810210F236422CDE900104FF435
:102E8000CD712520FEF716F900E000BF00BF33B07A
:102E900000BD000058520008D3020020E0020020CC
:102EA000E1020020E2020020E3020020E402002010
:102EB0001CB51148007818B901200F49087006E0C8
:102EC0000D480078012802D100200B4908700B48FA
:102ED0001021CDE900100A490988373188B20F2343
:102EE00064224FF4A071FEF7E5F805480068103041
:102EF000034908601CBD0000C1000020D002002072
:102F0000CC02002008B501218020FEF7FDF9482001
:102F10008DF803004FF6FF70ADF8000069460248D7
:102F2000FDF7E0FC08BD0000001C014008B5214889
:102F3000006800EB8000012101EB40001D490860A2
:102F400010201D4900900988373188B201231A46A4
:102F50004FF4A071FEF764F8174800681030164966
:102F6000086016480078012805D11548007810B986
:102F70001448007898B11148007830B910480078AA
:102F8000012802D10F48007848B10C48007878B980
:102F90000B48007860B90B480078012808D10A482E
:102FA0000078012804D109480078401C07490870BE
:102FB00008BD0000B0000020CC020020B4000020BA
:102FC000B5000020B6000020C1000020C000002095
:102FD00008B52148006800EB8000022101EB4000A9
:102FE0001D49086010201D4900900988373188B2BA
:102FF000012302224FF4A071FEF712F8174800686F
:1030000010301649086016480078012805D1154887
:10301000007810B91448007898B11148007830B998
:1030200010480078012802D10F48007848B10C48B8
:10303000007878B90B48007860B90B48007801280F
:1030400008D10A480078012804D109480078401CBA
:103050000749087008BD0000B0000020CC02002025
:10306000B4000020B5000020B6000020C100002000
:10307000C000002008B52148006800EB8000032153
:1030800001EB40001D49086010201D49009009888F
:10309000373188B2012303224FF4A071FDF7C0FF3E
:1030A0001748006810301649086016480078012853
:1030B00005D11548007810B91448007898B1114826
:1030C000007830B910480078012802D10F48007804
:1030D00048B10C48007878B90B48007860B90B48C3
:1030E0000078012808D10A480078012804D109484D
:1030F0000078401C0749087008BD0000B00000209F
:10310000CC020020B4000020B5000020B600002052
:10311000C1000020C000002008B52148006800EB75
:103120008000042101EB40001D49086010201D496A
:1031300000900988373188B2012304224FF4A0712E
:10314000FDF76EFF174800681030164908601648F2
:103150000078012805D11548007810B91448007886
:1031600098B11148007830B910480078012802D190
:103170000F48007848B10C48007878B90B480078BF
:1031800060B90B480078012808D10A480078012866
:1031900004D109480078401C0749087008BD0000A8
:1031A000B0000020CC020020B4000020B5000020B8
:1031B000B6000020C1000020C000002008B5204853
:1031C000006800EB8000052101EB40001C4908600D
:1031D00010201C4900900988373188B2012305224C
:1031E0009101FDF71DFF1748006810301549086070
:1031F00015480078012805D11448007810B9144802
:10320000007898B11048007830B91048007801284B
:1032100002D10F48007848B10B48007878B90B48C4
:10322000007860B90A480078012808D10948007878
:10323000012804D108480078401C0749087008BDDF
:10324000B0000020CC020020B4000020B500002017
:10325000B6000020C1000020C000002008B52148B1
:10326000006800EB8000062101EB40001D4908606A
:1032700010201D4900900988373188B201230622A9
:103280004FF4A071FDF7CCFE1748006810301649C6
:10329000086016480078012805D11548007810B953
:1032A0001448007898B11148007830B91048007877
:1032B000012802D10F48007848B10C48007878B94D
:1032C0000B48007860B90B480078012808D10A48FB
:1032D0000078012804D109480078401C074908708B
:1032E00008BD0000B0000020CC020020B400002087
:1032F000B5000020B6000020C1000020C000002062
:1033000008B52148006800EB8000072101EB400070
:103310001D49086010201D4900900988373188B286
:10332000012307224FF4A071FDF77AFE17480068C9
:1033300010301649086016480078012805D1154854
:10334000007810B91448007898B11148007830B965
:1033500010480078012802D10F48007848B10C4885
:10336000007878B90B48007860B90B4800780128DC
:1033700008D10A480078012804D109480078401C87
:103380000749087008BD0000B0000020CC020020F2
:10339000B4000020B5000020B6000020C1000020CD
:1033A000C000002008B52148006800EB800008211B
:1033B00001EB40001D49086010201D49009009885C
:1033C000373188B2012308224FF4A071FDF728FE9F
:1033D0001748006810301649086016480078012820
:1033E00005D11548007810B91448007898B11148F3
:1033F000007830B910480078012802D10F480078D1
:1034000048B10C48007878B90B48007860B90B488F
:103410000078012808D10A480078012804D1094819
:103420000078401C0749087008BD0000B00000206B
:10343000CC020020B4000020B5000020B60000201F
:10344000C1000020C000002008B52148006800EB42
:103450008000092101EB40001D49086010201D4932
:1034600000900988373188B2012309224FF4A071F6
:10347000FDF7D6FD17480068103016490860164859
:103480000078012805D11548007810B91448007853
:1034900098B11148007830B910480078012802D15D
:1034A0000F48007848B10C48007878B90B4800788C
:1034B00060B90B480078012808D10A480078012833
:1034C00004D109480078401C0749087008BD000075
:1034D000B0000020CC020020B4000020B500002085
:1034E000B6000020C1000020C00000201CB5194912
:1034F000C86801F0FDFC3030C0B28DF800002E200D
:103500008DF801001349C868134901F059FD0446BC
:1035100001F0EEFC0A2190FBF1F201FB12003030C9
:10352000C0B28DF802000B49C8680C4901F048FD93
:10353000044601F0DDFC0A2190FBF1F201FB1200D0
:103540003030C0B28DF80300042269460520FEF732
:103550002EFE1CBDB0030020000020410000C84228
:103560001CB51949886801F0C3FC3030C0B28DF831
:1035700000002E208DF8010013498868134901F0DE
:103580001FFD044601F0B4FC0A2190FBF1F201FB9F
:1035900012003030C0B28DF802000B4988680C4927
:1035A00001F00EFD044601F0A3FC0A2190FBF1F2AC
:1035B00001FB12003030C0B28DF8030004226946CE
:1035C0000020FEF7F4FD1CBDB003002000002041E8
:1035D0000000C8422DE9FC417449886801F088FC6C
:1035E00030307349C8702E2008717049886801F026
:1035F0007FFC074601F0B8FC06466C4881683046FF
:1036000001F0AAFD05466B4901F0DAFC044601F021
:103610006FFC0A2190FBF1F201FB1200303064498B
:1036200048716249886801F063FC074601F09CFC20
:1036300006465E488168304601F08EFD05465E49CB
:1036400001F0BEFC044601F053FC0A2190FBF1F2AC
:1036500001FB12003030564988710020C8710846BD
:1036600010210F236422CDE9001000210846FDF748
:1036700021FD4E49C86801F03BFC30304F49C8700D
:103680002E2008714949C86801F032FC074601F054
:103690006BFC06464548C168304601F05DFD0546B5
:1036A000444901F08DFC044601F022FC0A2190FB04
:1036B000F1F201FB12003030404948713B49C868C3
:1036C00001F016FC074601F04FFC06463748C1687A
:1036D000304601F041FD0546374901F071FC0446D2
:1036E00001F006FC0A2190FBF1F201FB12003030E0
:1036F000324988710020C871084610210F236422C6
:10370000CDE9001011210020FDF7D4FC27490869FC
:1037100001F0EEFB30302A49C8702E200871234991
:10372000086901F0E5FB074601F01EFC06461F484C
:103730000169304601F010FD05461E4901F040FCCC
:10374000044601F0D5FB0A2190FBF1F201FB1200C7
:1037500030301B4948711549086901F0C9FB07461B
:1037600001F002FC064611480169304601F0F4FC04
:103770000546114901F024FC044601F0B9FB0A2179
:1037800090FBF1F201FB120030300D4988710020EE
:10379000C871084610210F236422CDE900102221B0
:1037A0000020FDF787FCBDE8FC810000B00300208D
:1037B00080000020000020410000C8428A00002054
:1037C000940000202DE9FC413D48006801F090FB89
:1037D000642190FBF1F00A2190FBF1F201FB120051
:1037E0003030384988713648006801F081FB0A2181
:1037F00090FBF1F090FBF1F201FB12003030314907
:10380000C8712F48006801F073FB0A2190FBF1F2A8
:1038100001FB120030302B4908722E2048722848D4
:10382000006801F065FB074601F09EFB0646244850
:103830000168304601F090FC0546234901F0C0FBC9
:10384000044601F055FB0A2190FBF1F201FB120046
:1038500030301C4988721A48006801F049FB07465D
:1038600001F082FB064616480168304601F074FC00
:103870000546164901F0A4FB044601F039FB0A2174
:1038800090FBF1F201FB120030300E49C8720020AB
:103890000873084610210F236422CDE9001033215C
:1038A0000020FDF707FC0A4810210F236422CDE910
:1038B000001044210020FDF7FDFBBDE8FC81000065
:1038C0004000002044000020000020410000C842C9
:1038D0005800002038B504464FF6FF701949009093
:1038E00009888AB21749098888B2FA236421FDF74A
:1038F00077FAC4F1FA05ABB2124D2D88AAB2124D77
:103900002D88A9B2114D2D88A8B2FDF7E3F90D4815
:103910000068401C0B4908600C480068401C0B49BB
:103920000860C4F1FA000849086006480068B0F56C
:103930009F7F05DD3320034908603220034908607A
:1039400038BD0000A4000020AC000020A80000202A
:1039500070B50546322400BF08E0C5F1FA0291B205
:10396000A0B24FF47842FDF7A7F9641CB4F59F7F2D
:10397000F3DDB4F59F7F00DD322470BD08B54FF450
:10398000A060FDF719FC4FF4165000F0BFFBFEF7E6
:10399000F3FEFEF71FFCFDF7A3FE00F051FBFEF760
:1039A00087FC00F01FFBFDF711FC00F0D3FAFEF7D7
:1039B000D5FCFFF7A7FA4FF6FF7040F2DF1340F295
:1039C0003F12002100900846FDF70AFA03210F205C
:1039D00000F036FA3449086064E000F085FCFFF737
:1039E000F9FDFFF7EFFE3048006801F0BDFA05462B
:1039F00000F088F9044601F07BFA2C49086008467B
:103A0000008881B22A48FEF72EFAFA233222642176
:103A10001046FDF75FF9FA2340F23F1219463220B3
:103A2000FDF758F90C2001230022F42100902520F5
:103A3000FDF7F6FA0C2002231422E0210090252045
:103A4000FDF7EEFA0C2002232822CC21009025203D
:103A5000FDF7E6FA0C2002233C22B8210090252035
:103A6000FDF7DEFA0C2002235022A421009025202D
:103A7000FDF7D6FA0C2003236422902100901E202B
:103A8000FDF7CEFA0C20032378227C2100901E2023
:103A9000FDF7C6FA4FF4AF73C8224FF49671322087
:103AA000FDF780F999E700000400002000000020E5
:103AB0000008004010B5B2B073208DF800007020EF
:103AC0008DF8010065208DF802008DF80300642058
:103AD0008DF804003A208DF8050086498648006874
:103AE00001F044F9044601F003FA0A2190FBF1F2D7
:103AF00001FB12003030C0B28DF806007F497E48CD
:103B0000006801F033F9044601F0F2F90A2190FB54
:103B1000F1F201FB12003030C0B28DF80700764898
:103B2000006801F0E5F90A2190FBF1F201FB1200B7
:103B30003030C0B28DF808002E208DF809006F4992
:103B40006D48006801F03CFA044601F0D1F90A2101
:103B500090FBF1F201FB12003030C0B28DF80A0088
:103B600064496548006801F02BFA044601F0C0F989
:103B70000A2190FBF1F201FB12003030C0B28DF847
:103B80000B0020208DF80C008DF80D006B208DF8B7
:103B90000E0070208DF80F003D208DF81000584960
:103BA000886801F0A5F93030C0B28DF811002E20E0
:103BB0008DF8120052498868504901F001FA044614
:103BC00001F096F90A2190FBF1F201FB120030306E
:103BD000C0B28DF813004A498868464901F0F0F9EF
:103BE000044601F085F90A2190FBF1F201FB120075
:103BF0003030C0B28DF8140020208DF815004B2015
:103C00008DF8160069208DF817003D208DF81800FA
:103C10003B49C86801F06CF93030C0B28DF819002A
:103C20002E208DF81A003649C868344901F0C8F9C9
:103C3000044601F05DF90A2190FBF1F201FB12004C
:103C40003030C0B28DF81B002D49C868294901F0F9
:103C5000B7F9044601F04CF90A2190FBF1F201FB9F
:103C600012003030C0B28DF81C0020208DF81D00ED
:103C70004B208DF81E0064208DF81F003D208DF82C
:103C800020001F49086901F033F93030C0B28DF8C7
:103C900021002E208DF8220019490869174901F0EA
:103CA0008FF9044601F024F90A2190FBF1F201FB9F
:103CB00012003030C0B28DF82300114908690D4957
:103CC00001F07EF9044601F013F90A2190FBF1F2AC
:103CD00001FB12003030C0B28DF824000A208DF8AC
:103CE00025000D208DF826002721684600F05EFA99
:103CF00032B010BD0000C842A000002000002041EA
:103D0000B00300202DE9F14F84B0049801F0F0F8E1
:103D100031490860098888B2FFF71AFE2E49096800
:103D20002D4A9269881A01F01FF902902A494869C0
:103D300001F01AF90446029901F00EFA039026499F
:103D4000486801F011F90546029900F0ADFF0446FC
:103D500001F0CEF8204948600869039901F030F974
:103D600006461D49486801F0FFF880461A48C168B8
:103D7000404601F025F9054617498868029901F087
:103D80001FF90746294600F08FFF0446314600F030
:103D90008BFF0190029801F0ABF80F494861019840
:103DA00001F0A6F80C498861019800F051FF8246A5
:103DB00000220A4B00F00CFC80460022084B00F069
:103DC0005FFD06460022074B00F05AFB044600F058
:103DD00025FB05B0BDE8F08FB003002000805D40FA
:103DE00000B8844000406F4070B505460024FDF7E0
:103DF00015FB002618E040211048FCF750FE022079
:103E0000FEF730FA40210D48FCF74BFE6006040E29
:103E100080210A48FCF73AFE08B1601CC4B20120B8
:103E2000FEF720FA701CC6B2082EE4DB15B9FCF7C9
:103E300095FE01E0FCF776FE204670BD000C0140C7
:103E40002DE9F04107460C460025002600BF08E09A
:103E500036023919491B481E00F008F80644681C50
:103E6000C5B2A542F4DB3046BDE8F08170B504462A
:103E7000FCF71CFE210AA02202EB4101C8B200F0AF
:103E800017F8FCF787FEE0B200F012F8FCF782FEAC
:103E9000FCF70CFEA12000F00BF8FCF77BFE0020E5
:103EA000FFF7A2FF0546FCF71DFE284670BD000087
:103EB00070B50446FDF7C4FA40211548FCF7EFFD44
:103EC000002521E004F08000002804DD8021104856
:103ED000FCF7E7FD03E080210D48FCF7E0FD6006FC
:103EE000040E0220FEF7BEF940210948FCF7D9FD77
:103EF0000220FEF7B7F940210548FCF7D0FD02206B
:103F0000FEF7B0F9681CC5B2082DDBDB70BD000000
:103F1000000C014010B50E480068642190FBF1F0E0
:103F2000002806DB03220A4801680F2000F044FA4B
:103F30000CE007480068642190FBF1F0002805DAE6
:103F40000222034801680F2000F036FA10BD00007D
:103F50000400002000B589B001210420FDF7C4F958
:103F600001212920FDF7D0F918208DF823004FF406
:103F70008050ADF8200003208DF8220008A91748D2
:103F8000FCF7B0FC01210803FCF738FD0020ADF878
:103F90001A00ADF8160040F28330ADF8180000208A
:103FA000ADF8140005A90E48FDF78CFF7020ADF8A0
:103FB00004000120ADF806000020ADF80C0001A9B6
:103FC0000748FDF7FBFE08210548FDF743FF0121E7
:103FD0000348FDF767FE09B000BD00000014014072
:103FE000000800401FB501211020FDF77DF940F2C7
:103FF0008330ADF808004F20ADF8040001A90F4848
:10400000FDF760FF012211460C48FDF7CDFE36207A
:104010008DF8000001208DF8030000208DF80100CC
:104020008DF802006846FDF78FF801210348FDF77F
:1040300039FE01210148FDF72FFE1FBD0010004091
:1040400000B589B0012140F60D00FDF75DF918209B
:104050008DF823004FF48070ADF8200003208DF818
:10406000220008A92648FCF73DFC18208DF8230003
:104070004FF40050ADF8200003208DF8220008A96D
:104080002048FCF72FFC0020ADF81A00ADF8160010
:1040900040F28330ADF818000020ADF814008DF820
:1040A0001C0005A91848FDF70DFF0020ADF8100011
:1040B0006020ADF804000020ADF81200ADF80C004F
:1040C0000420ADF808000120ADF806000020ADF88E
:1040D0000E0001A90C48FDF771FE08210A48FDF702
:1040E000B9FE01210848FDF7CBFD01210648FDF787
:1040F000D9FD01210448FDF7E1FD09B000BD000034
:1041000000080140000C0140002C014010B586B0B1
:104110000446012144F20400FDF7F6F84FF4007064
:10412000ADF8140003208DF8160018208DF8170044
:1041300005A91C48FCF7D6FB4FF48060ADF81400CD
:1041400004208DF8170005A91648FCF7CBFB2520A5
:104150008DF8000001208DF801008DF802008DF827
:1041600003006846FCF7F0FF01940020ADF808005A
:10417000ADF80A00ADF80C00ADF810000C20ADF859
:104180000E0001A90848FDF79BFF012240F22551CE
:104190000548FDF770FF01210348FDF729FF06B030
:1041A00010BD0000000801400038014070B5054610
:1041B0000E4600240BE000BF40210A48FDF724FF13
:1041C0000028F9D0295D0748FDF7EBFF641CB442D5
:1041D000F1D300BF40210348FDF716FF0028F9D0B6
:1041E00070BD000000380140704700002DE9F0412B
:1041F000104909783039642251430E4A9278303A96
:1042000002EB820201EB42020A49C97830395018A8
:1042100000F0AAFE804600F01BFD06460022064B79
:1042200000F0D6F9044600F0F9F804490861BDE849
:10423000F0810000E802002000005940B003002097
:104240002DE9F041104909783039642251430E4A72
:104250009278303A02EB820201EB42020A49C978B5
:104260003039501800F080FE804600F0F1FC064620
:104270000022064B00F0ACF9044600F0CFF80449E8
:10428000C860BDE8F0810000E8020020000059404D
:10429000B00300202DE9F04110490978303964223B
:1042A00051430E4A9278303A02EB820201EB42020D
:1042B0000A49C9783039501800F056FE804600F09F
:1042C000C7FC06460022064B00F082F9044600F0C7
:1042D000A5F804498860BDE8F0810000E8020020EC
:1042E00000005940B003002010B51748008800F4C2
:1042F000004040B315480078012803D1FFF7CAFFFA
:10430000FFF72EF912480078012803D1FFF798FF34
:10431000FFF7ECF80F480078012803D1FFF766FF9C
:10432000FEF748FA0C480078012803D100F018F88D
:10433000FFF7F0FD09480078012801D1FFF754FF8D
:1043400000200149088010BD38000020E002002054
:10435000E1020020E2020020E3020020E40200204B
:1043600013480078312812D1114800783038642180
:1043700048430F494978303901EB810100EB410195
:104380000B488078303808440A4908600FE0084834
:10439000007831280BD00648407830380449097835
:1043A000303901EB810100EB4100024908607047A0
:1043B000E8020020040000202DE9F04105460E46E9
:1043C0001746002408E0E20026FA02F2D1B22819CA
:1043D00000F006F8601CC4B2BC42F4DBBDE8F0811A
:1043E00070B504460D46FCF761FB210AA02202EBE2
:1043F0004101C8B2FFF75CFDFCF7CCFBE0B2FFF770
:1044000057FDFCF7C7FB2846FFF752FDFCF7C2FB40
:10441000FCF768FB0A20FDF7FFFE70BD21F00042AB
:10442000A2F16052B2F5801F01F0004328BFD2F123
:104430007F6C0BD95FEA001C43EAC20242EB50706A
:1044400018BF704728BF20F001007047B2F5801FE9
:10445000BCBF184670474FEA410C1CF5001F02D242
:10446000084600F074BE70B500F0B4FA0000008990
:10447000FFF7F6BF4FF00040A0F580007047000046
:1044800010B591EA030F48BF83F0004300F1FE82AC
:10449000841A71EB030C05D2121943EB0C03001BB9
:1044A00061EB0C01DFF824E14FEA1154A4EB135C3B
:1044B0001EEA430F18BF9EEA445F73D023EA0E033F
:1044C000DCF1200E21EA045143F4801332D322FAA6
:1044D0000CFE10EB0E0023FA0CFE41EB0E01CCF1AA
:1044E000200E03FA0EFE10EB0E0051F10001B1F5A3
:1044F000801FCCF1200E32D201EB045112FA0EF2E1
:10450000BDE8104058BF7047401C38BF5FEA420208
:1045100018BF7047002814BF20F0010041F10001CE
:104520004FEA410313F5001F38BF7047A1F1C041A6
:1045300000F09EBA012A43EB0302ACF1200CDCF13F
:104540001F0E32BF4FF0000E23FA0CF310EB0300E6
:1045500041EB0451B4EB115FD0D0A1EB045101F554
:10456000801149085FEA300001EB04510ED350F18D
:10457000000038BF12FA0EFE08D1BDE81040C9E7AE
:10458000401C38BF5FEA4202CAD1C3E7BDE8104011
:104590004FEA410313F5001F38BF7047A1F1C04136
:1045A00000F066BA9EEA445F08D011EA5E0FBDE8EB
:1045B000104004BF01F0004100207047BDE81040EA
:1045C00070B500F007FA00BF64FBBE3E0000E0FFDC
:1045D0002DE9C04130B4DFF8A0C23CEA111418BF85
:1045E0003CEA131400F0EC8081EA03051CEA111484
:1045F00044EAD57418BF1CEA131500F0C780A4EB79
:1046000005044FF0004545EAC12145EAC32341EACC
:10461000505143EA525304F17F74994204F5003437
:104620004FEAC0204FEAC22208BF904200F09C80AF
:104630004FEA13650FF24016765D4FEA134506FB0D
:1046400005F7C7F1807706FB07F74FEAD737A7FBD7
:1046500003687642C8F58038A7FB06CE38BFA8F1BC
:10466000010807FB08E64FF0000EA6FB028CE6FBF4
:1046700003CEDCF1000CCEF1004E38BFAEF1010EDE
:10468000A6FB0C584FF000074FF00005E6FB0E8725
:10469000A1FB08C6A0FB07CE16EB0E0645F10005F0
:1046A000E1FB076515F1E04E7EBFA4F580345FEABB
:1046B00046066D4116F1800745F100054FEA1727C0
:1046C0004FEA066647EA0567A6F1DE46B6F1805F67
:1046D0004FEA15251FD9384624F0010C05EBC471AB
:1046E000BCF1FE6F01EB0C1102D8F0BCBDE80081FB
:1046F00024425CBF01F5801E9EEAC47F02D4F0BC58
:10470000BDE80081244238D4F0BCA1F1C041BDE82D
:10471000004100F0ADB94FEAD22242EA43524FEADB
:10472000D323A7FB02864FEAD02040EA415007FB83
:1047300003661EEA0E0F4FEAD12105FB026658BF41
:10474000A6EB0056B6EB00564FEA520E4EEAC37E79
:1047500018EB0E0E56EB530EBDD518EB02085E415A
:104760007F1C55F10005B6E74FF480154FF00007A8
:104770004FF000064FF00008ADE7F0BC4FF000002E
:1047800001F1C04101F00041BDE8008111EA0C1FB8
:104790000CEA131500D00CE013EA0C1F00F0258082
:1047A0004FF00000F0BC81EA030101F00041BDE8D8
:1047B0000081F0BCBDE8004181EA030100F058B976
:1047C000F0BCBDE8004170B500F004F9097EFC3E84
:1047D00000F007B881EA03014FF0000001F000414A
:1047E000704781EA030100F043B9F0BCBDE8004125
:1047F0004FF0000021497047FFFDFBF9F7F5F4F297
:10480000F0EEEDEBE9E8E6E4E3E1E0DEDDDBDAD86B
:10481000D7D5D4D3D1D0CFCDCCCBCAC8C7C6C5C4C9
:10482000C2C1C0BFBEBDBCBBBAB9B8B7B6B5B4B3E0
:10483000B2B1B0AFAEADACABAAA9A8A8A7A6A5A4CB
:10484000A3A3A2A1A09F9F9E9D9C9C9B9A9999988F
:104850009797969595949393929191908F8F8E8E32
:104860008D8C8C8B8B8A89898888878786858584BF
:1048700084838382828181800000FF070000F87FAB
:10488000DFF848C170B51CEA111E1EBF1CEA1315E3
:104890009EEA0C0F95EA0C0F00F06F8081EA03048A
:1048A00023EA4C134EEAD47E21EA4C1141F48011E4
:1048B00043F48013AE44A1FB024CA0FB0365AEF1B0
:1048C0007F7E361955EB0C05A1FB034C4CF1000320
:1048D000A0FB021C16EB0C06654153F100030942D4
:1048E00018BF46F0010613F4007F0BD14FEA0331E5
:1048F0004FEA0530340341EA155140EA16506FF093
:1049000003020AE04FEAC3214FEAC520F40241EA5C
:10491000555140EA56506FF0020202EB2E4201EB75
:10492000025585EACE710AD05FEA440C18BF24F024
:10493000004450F1000041F1000120EAD47040F23F
:10494000FE7C624500D270BDA84214BF4FF0804487
:104950004FF04044002E08BF0024BEF1806FA8BF76
:10496000A1F1C041BDE8704080F282804FF00000AC
:1049700001F1C04101F0004170479EEA0C0F0CEAC2
:10498000131518BF95EA0C0F06D04FF0000081EA0E
:10499000030E0EF0004170BD00F01CF88900013ECE
:1049A00000F007B800F009B84FEA430C5FEA5C5C1E
:1049B00008D081EA030100F05BB84FEA410C5FEADE
:1049C0005C5CF6D14FF00000014970470000FF0722
:1049D0000000F87F0EF1020E2EF0030E5EF8046B5D
:1049E000364205D4012A43EB030515F5001F12D802
:1049F000012841EB010C1CF5001F0CD80ED14FEA29
:104A0000D17C15F5001F0CEB4C0C0CF1020C08BF0F
:104A10004CEBD37C04E04FF0080C01E04FEAD37C70
:104A20000CEB4C0526FA05F606F00706B6F1040C69
:104A300006D20EEB860CBDE870404CF0010C6047CE
:104A4000DFE80CF0090B02024FF000414FF00000CC
:104A5000A1F5002170BD19461046012851EB010453
:104A600018BFD4F5001484BF002001F0004170BDD0
:104A70000808A0F500114FEA3101704710B591EA1E
:104A8000030F48BF83F000433FF502AD841A71EB7A
:104A9000030C07D212198CF0004C43EB0C03001BE3
:104AA00061EB0C01DFF8A4E14FEA1154A4EB135CB5
:104AB0001EEA430F18BF9EEA445F00F0B08023EA6D
:104AC0006E03524221EA0451C3EB6E0338BF5B1EF2
:104AD000DCF1200E25D322FA0CFE10EB0E0043FA77
:104AE0000CFE41EB0E01CCF1200E03FA0EFE10EB92
:104AF0000E0051F10001CCF1200E29D412FA0EF271
:104B000001EB0451BDE8104058BF7047401C1CBF6A
:104B1000B2F1004F704700280CBF491C20F0010083
:104B2000704712EB020E43EB030218BF4FF0010E69
:104B30004EEA4202ACF1200CDCF11E0E54D943FACD
:104B40000CFE10EB0E0051F1FF31CCF11E0ED5D54D
:104B50000EF1010E12FA0EFE404141EB010101EB94
:104B6000445C5FEA5C5C10D910EBDE7001EB045131
:104B700038BFBEF1004FBDE8104018BF7047002895
:104B80000CBF491C20F00100704730D24FEAD42CF2
:104B900011F5001124F400641BD0B1FA81F20B3A34
:104BA000A41AA41ED2F12003914030FA03F3194352
:104BB000904001EBCC71002C01EB0451BDE810409A
:104BC000A8BF704701F1C0414FF0000001F0004163
:104BD0007047B0FA80F310FA03F100D110BDE41A67
:104BE000173C4805C90AE4E701EB045110BD491020
:104BF00001EB0451BDE810404FEA300002E04FF0F5
:104C0000000170474A0008BF0042F8D0B2F5001F0B
:104C100028BF704701F000414FF0000070479EEA46
:104C2000445F07D011EA5E0FBDE8104004BF0021C9
:104C300000207047BDE8104070B5FFF7CBFE00BF05
:104C400040DFF63E83F00041104670470000E0FF71
:104C500043004FEAD30C4FEA3C0C43401FBF4007D0
:104C60000CF1605113F0FE4F70471CF0006F03D140
:104C700000200CF0004170470CF0004343EA5070F4
:104C800010B540EACC0000F01CFA00BF0000009212
:104C90004FEA0001FFF7ECBE4FF000414FF000007B
:104CA000A1F500217047000090EA010F48BF81F094
:104CB000004100F16282421A3CBF801A89184FEA13
:104CC000D0524FF07F4C1CEA410FA2EBD15318BFDA
:104CD0009CEA026F00F03B804FF0004C4CEA002051
:104CE0004CEA012121FA03FC10EB0C0C1ED202F15C
:104CF000FF325FEA1C2040EBC25038BF70471CF007
:104D00007F0F4FEA400C18BFBCF17F4F38BF704790
:104D1000C3F12003994008BF20F00100BCF17F4F90
:104D200038BF7047A0F1C04000F011BA4FEA3C0014
:104D3000000A40EBC25028BF1CF0FF0F4FEA400CA6
:104D4000E6D018BFBCF17F4F38BF7047EAE79CEA56
:104D5000026F05D010EA5C0F08BF00F000407047FA
:104D600010B500F0AEF900BF64FBBE3E4FF47F0CFF
:104D70001CEAD0121EBF1CEAD11392EA0C0F93EA70
:104D80000C0F00F0858090EA010F48BF42F480725A
:104D900040F4000C41F400002CF07F4120F07F40F3
:104DA00000B58142A2EB03020FF2081CACEB504E9F
:104DB000C0F100009EF800E04FEA4E0E00FB0EFC32
:104DC00038BF49004FEA2C1C02F5FA020CFB0EF327
:104DD0004FEACE1E4FEA112C4FEAC1210EEB635E63
:104DE00042EB22420EFB0CFC4FEA1C5300FB03116A
:104DF0004FEA112C4FEA01310EFB0CFC4FEADC4C60
:104E000000FB0C11C14228BF09184CEB03335DF8BD
:104E100004EB10EB410143EBC250B2F57C0F38BFFD
:104E2000704729D512F0F00F1CBF00F1C04000F010
:104E300000407047008182838485868788898B8CB7
:104E40008D8E8F919293959697999A9C9D9FA0A2F3
:104E5000A3A5A7A8AAACAEB0B2B3B5B7B9BCBEC043
:104E6000C2C5C7C9CCCED1D4D7D9DCDFE2E6E9ECE4
:104E7000F0F3F7FAFE0000004FEA400C0CF1807CE2
:104E8000BCF17E4F28BF7047B0F1C04000F05FB961
:104E900090EA010F0CEAD11348BF42F480726245D8
:104EA00038BF634507D213F47F0F16D080EA0100A4
:104EB00000F00040704710B500F003F9097EFC3E99
:104EC00000F005B880EA010000F00040704780EA79
:104ED000010000F0004000F03AB912F47F0F04BF67
:104EE0000248704780EA010000F031B90000C07F3D
:104EF00041000B0ED3F19E0208D950F400034FEA93
:104F0000032323FA02F048BF4042704710B500F077
:104F1000D8F800BF49922480002070476FF000420B
:104F200082EA200070470000C10DD1F19E0206DB2D
:104F30004FEA002343F0004323FA02F07047004297
:104F400007D54FEA4001B1F1FE4F02D24FF0000009
:104F5000704710B500F0B5F84992248000207047E2
:104F60006FEA20007047000010F0004148BF404247
:104F7000B0FA80F310FA03F2C3F19D030BD051EAAB
:104F8000C35101EB1220530638BF704700F10100F6
:104F900008BF20F001007047B0FA80F310FA03F266
:104FA000C3F19D030AD0D90501EB1220530638BF87
:104FB000704700F1010008BF20F0010070470000B9
:104FC0004FF47F0C1CEAD0121EBF1CEAD11392EAE8
:104FD0000C0F93EA0C0F00F0478090EA010F48BFD6
:104FE00042F480724FF0004C4CEA00204CEA012160
:104FF00002EB0302A0FB0113A2F50002002918BF77
:1050000043F001035B0028BF4FEA330342EB224227
:105010005FEA132C4CEBC2502EBFBCEB436FB2F5D2
:105020007C0F70474FEA036CBCF1004F08BF20F0C3
:105030000100B2F57C0F38BF70470BD582F0FF023C
:1050400012F5803FC8BF704700F1C040D8BF00F0E4
:105050000040704700F5000C5FEA4C0C48BF7047F9
:10506000B0F1C04000F073B890EA010F0CEAD11320
:1050700048BF42F48072624538BF634504D280EA7B
:10508000010000F00040704710B500F01AF800BFB2
:105090008900013E00F007B800F009B85FEA410C52
:1050A0005FEA1C6C08D080EA010000F050B85FEAAB
:1050B000400C5FEA1C6CF6D14FF00040A0F5800078
:1050C00070470EF1020E2EF0030E5EF8044B2442E0
:1050D00004D44FEA4102B2F17F4F11D84FEA4003A6
:1050E000B3F17F4F0CD80ED14FEAD07CB2F17F4F95
:1050F0000CEB4C0C0CF1020C08BF4CEBD17C04E027
:105100004FF0080C01E04FEAD17C0CEB4C0324FA81
:1051100003F404F00704B4F1040C06D20EEB840C83
:10512000BDE810404CF0010C6047DFE80CF00708C8
:1051300002024FF00040A0F5800010BD084642007A
:1051400018BFD2F1807288BF00F0004010BDFF216F
:1051500041EAD050C005704780F0004090EA010F4E
:105160007FF5A9AD81F0004100F007B890EA010F8A
:1051700048BF81F000413FF59EAD421A04D882F04D
:105180000042A0EB020011444FEAD0524FF07F4C96
:105190001CEA410FA2EBD15318BF9CEA026F4AD020
:1051A0004FF0004C4CEA00204CEA012121FA03FCAC
:1051B000B0EB0C0C0FD412F0FE0F36D05FEA4C00AF
:1051C0001DD5001240EBC25038BF70471CF03F0F96
:1051D00018BF70470BE0A2F101025FEA1C2040EB10
:1051E000C25038BF70471CF07F0F18BF7047C3F123
:1051F0002003994014BF401E20F001007047800832
:105200004FEA122308BF7047B0FA80FCA2EB0C02F1
:10521000CCF1280C60FA0CF093EA122F04BF00EBDB
:10522000C25070474FEAC3707047130A5FEADC1040
:1052300008BF7047F6E79CEA026F04D010EA5C0FE3
:1052400008BF0020704710B5FFF73BFF40DFF63E78
:1052500081F00040704700006B70206368616E67EA
:105260006520202020202020202020202000000059
:1052700000000000000000006B69206368616E6739
:105280006520202020202020202020202000000039
:1052900000000000000000006B64206368616E671E
:1052A0006520202020202020202020202000000019
:1052B00000000000000000007370656564206368F2
:1052C000616E676520202020202000000000000083
:1052D0000000000000000000616E676C65206368DC
:1052E000616E676520202020202000000000000063
:1052F00000000000000000002020202020202020AE
:1053000020202020202020202020202020000000FD
:10531000000000000000000000000000000000008D
:105320000000000000003F400000000000000000FE
:105330003000400030004000000009000BC03D007C
:105340000BC03D00090018C024407FE0224031809E
:105350000000180024C01B000D8032400180038033
:105360001C4027401C8007400040100060000000E7
:105370000000000000000000000000001F8020402E
:1053800040200000402020401F8000000000090055
:1053900006001F80060009000000040004003F8092
:1053A0000400040000000010006000000000000085
:1053B00000000400040004000400040000000000D9
:1053C00000400000000000000000002001C00600B6
:1053D0003800400000001F802040204020401F80F7
:1053E0000000000010403FC000400000000018C056
:1053F00021402240244018400000108020402440DA
:1054000024401B80000002000D0011003FC001403D
:1054100000003C80244024402440238000001F8062
:10542000244024403440038000003000200027C086
:105430003800200000001B802440244024401B80B2
:1054400000001C0022C0224022401F8000000000FB
:1054500000000840000000000000000000000460A0
:10546000000000000000000004000A00110020807D
:10547000404009000900090009000900000000007F
:105480004040208011000A00040018002000234042
:105490002400180000001F802040274029401F40A2
:1054A0000000004007C039000F0001C0004020404C
:1054B0003FC0244024401B8000001F80204020402B
:1054C00020403080000020403FC0204020401F800E
:1054D000000020403FC024402E4030C0000020404B
:1054E0003FC024402E00300000000F0010802040FC
:1054F00022403380020020403FC0040004003FC02F
:105500002040204020403FC020402040000000605C
:10551000202020203FC02000200020403FC0244009
:105520000B0030C0204020403FC0204000400040E1
:1055300000C03FC03C0003C03C003FC00000204012
:105540003FC00C4023003FC020001F80204020406F
:1055500020401F80000020403FC02440240018004D
:1055600000001F802140214020E01FA000002040BB
:105570003FC02440260019C0004018C024402440E9
:10558000224031800000300020403FC020403000E9
:10559000000020003F80004000403F8020002000AD
:1055A0003E0001C0070038002000380007C03C0062
:1055B00007C038000000204039C0060039C0204034
:1055C00000002000384007C0384020000000304074
:1055D00021C02640384020C00000000000007FE0CD
:1055E000402040200000000070000C0003800040BC
:1055F00000000000402040207FE00000000000008C
:1056000020004000200000000000001000100010EA
:10561000001000100010000000004000000000001A
:105620000000000002800540054003C0004020004B
:105630003FC0044004400380000000000380044099
:1056400004400640000000000380044024403FC0A6
:1056500000400000038005400540034000000000BA
:1056600004401FC0244024402000000002E00550F8
:1056700005500650042020403FC00440040003C0F1
:1056800000400000044027C000400000000000105F
:105690000010041027E00000000020403FC001403F
:1056A000070004C00440204020403FC000400040AC
:1056B000000007C0040007C0040003C0000004404D
:1056C00007C00440040003C0004000000380044001
:1056D000044003800000041007F0045004400380DD
:1056E0000000000003800440045007F00010044054
:1056F00007C002400400040000000000064005400E
:10570000054004C00000000004001F800440004069
:105710000000040007800040044007C0004004006F
:10572000070004C0018006000400060001C0070055
:1057300001C006000000044006C0010006C004408D
:1057400000000410071004E00180060004000000BF
:10575000044005C0064004400000000000000400B2
:105760007BE040200000000000000000FFF000008F
:105770000000000040207BE004000000000040002A
:1057800080004000200020004000000000000000D9
:105790000000000000000000000000000000000009
:1057A0001FCC000C000000000000000008003000CA
:1057B00060000800300060000000022003FC1E2092
:1057C000022003FC1E200220000000000E1811041D
:1057D0003FFF10840C78000000000F0010840F3889
:1057E00000C0077818840078000000780F8410C487
:1057F00011240E9800E4008400080800680070007E
:105800000000000000000000000000000000000098
:1058100007E01818200440020000000040022004A5
:10582000181807E00000000000000240024001805C
:105830000FF00180024002400000008000800080E4
:105840000FF800800080008000000001000D000EB5
:105850000000000000000000000000000080008048
:10586000008000800080008000800000000C000CA0
:10587000000000000000000000000000000600180A
:1058800000600180060018002000000007F00808F2
:1058900010041004080807F00000000008040804C1
:1058A0001FFC000400040000000000000E0C101497
:1058B0001024104411840E0C000000000C18100479
:1058C0001104110412880C700000000000E0032095
:1058D000042408241FFC0024000000001F981084EA
:1058E00011041104108810700000000007F00888EF
:1058F0001104110418880070000000001C00100042
:1059000010FC13001C001000000000000E381144B1
:105910001084108411440E38000000000700088C29
:1059200010441044088807F0000000000000000048
:10593000030C030C00000000000000000000000148
:10594000010600000000000000000000008001408F
:105950000220041008081004000002200220022087
:10596000022002200220022000000000100408088B
:105970000410022001400080000000000E00120010
:10598000100C106C10800F00000003E00C1813E4E2
:10599000142417C4082807D000000004003C03C4E6
:1059A0001C40074000E4001C000410041FFC11040C
:1059B000110411040E880070000003E00C1810049C
:1059C0001004100410081C10000010041FFC100428
:1059D00010041004080807F0000010041FFC110454
:1059E000110417C410040818000010041FFC11044F
:1059F000110017C010000800000003E00C1810048C
:105A0000100410441C780040000010041FFC108497
:105A10000080008010841FFC10040000100410049B
:105A20001FFC10041004000000000003000110011E
:105A300010011FFE10001000000010041FFC1104D4
:105A400003801464181C1004000010041FFC1004D0
:105A5000000400040004000C000010041FFC1F00E0
:105A600000FC1F001FFC1004000010041FFC0C04AD
:105A7000030000E010181FFC100007F008081004D5
:105A800010041004080807F0000010041FFC108424
:105A90001080108010800F00000007F008181024FC
:105AA0001024101C080A07F2000010041FFC110447
:105AB000110011C011300E0C000400000E1C110466
:105AC0001084108410441C380000180010001004CA
:105AD0001FFC100410001800000010001FF8100434
