:020000040800F2
:10000000200A00202D020008711E00080F190008A8
:100010006D1E000881130008832D000800000000F9
:100020000000000000000000000000005D2000084B
:100030008513000800000000251F00088521000826
:10004000470200084702000847020008470200086C
:100050004702000847020008891300084D140008F1
:100060007114000895140008B9140008470200082C
:10007000470200084702000847020008470200083C
:10008000470200084702000847020008470200082C
:10009000470200084702000847020008DD14000874
:1000A000470200084702000847020008470200080C
:1000B00047020008470200084702000847020008FC
:1000C00047020008470200084702000847020008EC
:1000D00047020008612B0008470200084702000899
:1000E000AD13000847020008470200084702000855
:1000F00047020008470200084702000847020008BC
:10010000470200084702000881270008470200084C
:100110004702000847020008AD2700084702000810
:10012000470200084702000847020008470200088B
:1001300000F002F800F06AF80AA090E8000C82448F
:100140008344AAF10107DA4501D100F05FF8AFF26C
:10015000090EBAE80F0013F0010F18BFFB1A43F0A5
:1001600001031847AC6C0000CC6C00000A444FF04F
:10017000000C10F8013B13F0070408BF10F8014B06
:100180001D1108BF10F8015B641E05D010F8016B4B
:10019000641E01F8016BF9D113F0080F1EBF10F8AF
:1001A000014BAD1C0C1B09D16D1E58BF01F801CBD2
:1001B000FAD505E014F8016B01F8016B6D1EF9D555
:1001C0009142D6D37047000000230024002500266A
:1001D000103A28BF78C1FBD8520728BF30C148BFAA
:1001E0000B607047662905F0D281782900F04C80B9
:1001F000002070471FB500F077FB040000200021AD
:1002000004F092FAE0601FBD10B510BD00F084FC50
:100210001146FFF7EFFF04F01FF800F0A2FC03B453
:10022000FFF7F2FF03BC02F0C9FD00000948804758
:1002300009480047FEE7FEE7FEE7FEE7FEE7FEE7C8
:10024000FEE7FEE7FEE7FEE704480549054A064BE0
:1002500070470000892100083101000820040020B7
:10026000200A002020060020200600207047000001
:100270000FB4044910B503AA029800F023FB10BC88
:100280005DF814FB3400002070B504460D4621468D
:100290001068AFF300802188090502D50F4A7A441F
:1002A00002E00E4A7A440E32002104F1240305E0F4
:1002B00000F00F060009965D5E54491C0028F7D136
:1002C00020780023000704D5702D02D009B1022345
:1002D00011322046BDE8704000F08DB8B06A0000D1
:1002E0002DE9F0474FF0000A89460446C0F820A0E7
:1002F0002046E1688847002876D0252806D0D4E932
:1003000001219047206A401C2062F1E7E168204605
:1003100000258847C4F81CA006460027C4F818A08A
:100320002A2E09D0304602F042FD38B304EB87088C
:10033000303EC8F8186019E059F8041B204604EB59
:1003400087029161E1688847012F064618D1E0696C
:10035000002820DA25F020051DE0D8F8180000EB71
:10036000800006EB40003038C8F818002046E168ED
:100370008847064602F01BFD0028EED1012F0AD067
:100380002E2E08D12046E16888477F1C0646022FA2
:1003900045F02005C4DBA069002803DA404245F09F
:1003A0000105A061E80701D025F01005B6B1A6F15E
:1003B0004100192802D8203645F400654A463146E6
:1003C000204625604D46FFF70DFF58B1012806D0A5
:1003D000ED1D25F0070000F1080989E704E005F1AB
:1003E000040985E730468AE7206ABDE8F087704750
:1003F0007047704770472DE9F0470D469946924681
:10040000044600F124080168880604D5E06921F05B
:100410001001216000E00120A84201DD471B00E03F
:100420000027A1697A1902EB0900081AA061207857
:10043000C00602D42046AFF30080002608E0D4E9CD
:1004400001211AF806009047206A401C761C2062A1
:100450004E45F4DB2078C0060AD52046AFF3008075
:1004600006E0D4E9012130209047206A401C206238
:10047000381EA7F10107F4DC07E0D4E9012118F8E0
:1004800005009047206A401C2062281EA5F1010546
:10049000F3DC2046AFF300802078000602D502206E
:1004A000BDE8F0870120FBE770472DE9FF4F0C46C0
:1004B0001E464FF0FF378BB0D2E90001DDF86080B7
:1004C0000A908A46C1F30A5505B93D4600210846FF
:1004D0004FF00000BAF1000F00F4400005DA00EB25
:1004E00080004FF4400101EA50004FEA9059B9F101
:1004F000010F00DDB9460A9850EA4A000ED044F6D2
:100500001050A5F2FF3545432F14B8F1000F1ED04F
:100510007542291E1EDDC9F100021CE0B8F1010F71
:100520004FF0000001D0302103E0F24305E02154F8
:10053000401CB042FBDB30460022002121540B99C5
:10054000C1F80880C1E900200FB0BDE8F08FBD1BE5
:100550006D1CDEE74A4600DA694206A800F066FA3A
:1005600006AB93E8070003AB83E8070050460A99FF
:1005700000F040FB8DE80700A0F500501F38009008
:100580000398002D09DD42F21F014A46084403A9E1
:100590000390684600F09FFD08E0A0F500504A4631
:1005A0001F3803A90390684600F0A9FD8DE80700F5
:1005B0000004000C03D04FF0FF30410800E010466B
:1005C000B8F1000F03D00022009215461EE0751E00
:1005D00005D400F08DF9303262556D1EF9D5B34661
:1005E0000122084302D000227F1C04E0207830283A
:1005F00001D100227F1E002A099786D01DE0112D0F
:1006000007DA00F075F9303262556D1C50EA0102CC
:10061000F5D1084302D00098C8B10EE00021681E51
:1006200005E0235C625C63542254401E491C8142F5
:10063000F7DBAB46A81B401E0990002004F80B0016
:100640000B98099AC0F80880C0E9002B7CE71126B6
:100650004FF0000859E72DE9F04F88460446D21DB7
:1006600022F0070191B0D1E90001CDE90A0102F0C1
:100670008AFB02460B98C00F01D02D2007E02068AE
:10068000810701D52B2002E0202101EAC000032AC6
:10069000099001D0072A05DB03464146204600F0B9
:1006A00085F90BE12078800601D5E06900E006209D
:1006B000B8F1650F814606D0B8F1660F18D0B8F1D1
:1006C000670F70D131E00020B9F1110F009001DB0C
:1006D000112301E009F101030AAA01A90CA8FFF7FF
:1006E000E4FEDDE90C70002609F10105834647E0D0
:1006F00001204B4600904FF000470AAA01A90CA820
:10070000FFF7D3FEDDE90DB00C995D46002610B968
:1007100009F101000D18B9EB050003D4C0F1FF3653
:1007200009F10105A5EB09002BE0B9F1010F01DA90
:100730004FF001090020B9F1110F0090484601DD8A
:10074000112300E003460AAA01A90CA8FFF7ADFE99
:10075000DDE90C704D4600268346207800070AD458
:10076000AB4500DA5D4601A8012D04DD411911F801
:10077000011C302907D04F4502DA17F1040F04DAC3
:10078000012082460FE06D1EEEE7002F02DCED1B1C
:100790003E4403E0781CA84200DD7D1CB81B00F13C
:1007A000010A4FF000472078000703D4AA4501DB77
:1007B0004FF0FF3A0021B7F1004F0DF143088DF8DB
:1007C000431024D002202B23002F01DA7F422D2357
:1007D0000A21021EA0F1010000DC5FB197FBF1FCD1
:1007E00097FBF1F201FB1C7C17460CF1300C08F86A
:1007F00001CDEEE7A8F1010003702188090501D5BC
:10080000452100E06521A0F1010800F8011C0998CC
:100810000FA9A1EB0807FF1D00B10120411901EB51
:10082000EA70A1693844081A401EA0612078C00609
:1008300002D42046AFF30080099828B1D4E9012101
:100840009047206A401C20622078C00622D52046AE
:10085000AFF300801EE0002E04DBB34502DD01A8EB
:10086000805D00E03020D4E901219047206A401CDF
:100870002062761CAAF101005FEA000A0AD100F0AA
:1008800033F8C0680168405CD4E901219047206AD0
:10089000401C2062281EA5F10105DCDC07E0D4E93C
:1008A000012118F8010B9047206A401C2062381E75
:1008B000A7F10107F3DC2046AFF30080032011B05D
:1008C00043E60000074B70B50D467B4400F05BF833
:1008D0000446284600F018F910B14FF0FF3070BD03
:1008E000204670BD372A000000487047E003002012
:1008F00030B5B0F10A024FEA900E71F100034EEAF2
:10090000817EB0EB0E0061EB91014FEA101E4EEAC2
:10091000017E10EB0E0041EB11114FEA102E4EEA52
:10092000016E10EB0E0041EB11214FEA104E4EEA22
:10093000014E10EB0E0041EB1141401841F1000156
:100940004FEAD00040EA41704FEAD10110EB800538
:100950004FEA810444EA907444EB01046D1944EBBE
:100960000404521BA3414FF0000348BF0A3200D5D4
:1009700030BD401C41F1000130BD000001694A1C3E
:1009800002610878704700B58FB0CDE901310021D0
:10099000059105497944CDE9031011466846FFF7F2
:1009A0009FFC0FB000BD0000E5FFFFFF2DE9F04107
:1009B0001F46044603260168072A01F4006004DB91
:1009C00008B116A505E016A503E008B115A500E0DD
:1009D00015A521F010002060A069C01EA0610FB114
:1009E000401EA0612046AFF300804FB1D4E9012141
:1009F00038469047206A401C2062C01C206206E0F6
:100A0000206AFAE7D4E9012115F8010B9047761E18
:100A1000F8D22046AFF30080BDE8F0814E414E0091
:100A20006E616E00494E4600696E66002DE9F04722
:100A3000814616468AB0334878440DC88DE80D00CB
:100A400030487844801C03AC0DC884E80D0041F6A2
:100A50009B300844372190FBF1F290FBF1F5A5F1B2
:100A6000800501FB12041B3C02D56442012000E01A
:100A70000020DFF890A080460027FA44AAF1BE0AC1
:100A80000DE0E00709D03246684607EB47010AEB64
:100A9000810100F034FB8DE8070064107F1C002CFE
:100AA000EFD1184F7F44AC3F18E0E80714D007EBB4
:100AB00004100DF1180A90E80E008AE80E00C068D4
:100AC000F04201D198190890324606A903A800F017
:100AD00016FB03AB83E807006D10641C002DE4D106
:100AE00032466946B8F1000F03A802D000F0F3FACD
:100AF00001E000F004FBC9E90001C9F808200AB0D0
:100B0000BDE8F087BC630000007B00F08000704708
:100B100000487047C00300207546FFF7F9FFAE4656
:100B200005006946534620F00700854618B020B5F9
:100B3000FFF78AFBBDE820404FF000064FF00007AA
:100B40004FF000084FF0000B21F00701AC46ACE875
:100B5000C009ACE8C009ACE8C009ACE8C0098D46E2
:100B6000704710B50446AFF300802046BDE8104042
:100B7000FFF755BB4FF0013C50F8042B51F8043BF4
:100B80009A4221D1A2EB0C03934313EACC1317D161
:100B900050F8042B51F8043B9A4215D1A2EB0C03F8
:100BA000934313EACC130BD150F8042B51F8043BB8
:100BB0009A4209D1A2EB0C03934313EACC13DBD086
:100BC0004FF00000704700BFD01A01BAB1FA81F1AE
:100BD00001F0180122FA01F0CB40C1F12001DBB293
:100BE000C0B2C01A2CFA01F3D11A914311EAC31111
:100BF000E6D170475FEA400C08BF91F0000F4FEA62
:100C00008C234FEAC12243EA51514FEA1C5018BFCE
:100C100000F5F0404FEA300018BF41F000415FEAB4
:100C20006C5C00F02980BCF1FF3F08BF40F08040C1
:100C30007047130C06BF12044FF0100C4FF0000C5D
:100C4000130E04BF12020CF1080C130F04BF1201A3
:100C50000CF1040C930F04BF92000CF1020CD30FA3
:100C600004BF52000CF1010C11464FF00002A0F13C
:100C70001F00A0EB0C00704711F0004F08BF704739
:100C800031F000413FF4D5AF0B0C06BF09044FF023
:100C9000100C4FF0000C0B0E04BF09020CF1080CF5
:100CA0000B0F04BF09010CF1040C8B0F04BF89006A
:100CB0000CF1020CCB0F04BF49000CF1010CCCF17C
:100CC0002003A0EB0C0022FA03F302FA0CF241EA33
:100CD000030100F10100704720F07F4C80EA03001F
:100CE00023F07F47ACEB070303F57C5300F0004093
:100CF00003F1FF032DE980494FEA154B09B44FEA90
:100D0000144325EA0B4E24EA03480FF2042606EBAF
:100D1000132749083E785FEA320203FB0667C7F5EE
:100D2000000707FB06F64FEA54374FEAD64606F1AE
:100D3000020607FB066CCCF1005C4FEA1C472CEA6C
:100D4000074C07FB06F40CFB06F504EB15464FEACF
:100D5000961634BF00204FF000404FEAD13706FB13
:100D600007FC4FEA1C4C0CFB0BF7D21B03FB0CF7E8
:100D700061EB07010CFB0EF7B0EB074072EB17427B
:100D80000CFB08F734BFA2EB0742B2EB074261EB62
:100D900017414FEA0C444FEA910706FB07FC4FEA64
:100DA0001C4C0CFB0BF7B0EBC74072EB573203FB4C
:100DB0000CF734BFA2EBC742B2EBC74261EB57312D
:100DC0000CFB0EF7B0EBC70072EB57720CFB08F789
:100DD00034BFA2EBC702B2EBC70261EB5771039FAE
:100DE0004FEA816141EA921104EBCC044FEAD1371A
:100DF0004FEA826206FB07FC42EA90124FEA8060EB
:100E00004FEA1C4C0CFB0BF7D21B03FB0CF761EBFE
:100E100007010CFB0EF7B0EB074072EB17420CFB1F
:100E200008F734BFA2EB0742B2EB074261EB174170
:100E30004FEA8C554FEA910704EB9C2406FB07FC14
:100E40004FEA1C4C0CFB0BF7B0EBC74072EB573270
:100E500003FB0CF734BFA2EBC742B2EBC74261EB16
:100E600057310CFB0EF7B0EBC70072EB57720CFB5F
:100E700008F734BFA2EBC702B2EBC70261EB5771B0
:100E800015EB4C254FEA816141EA92114FEA8262EB
:100E90004FEAD13742EA901206FB07FC44F1000406
:100EA0004FEA80604FEA1C4C0CFB0BF7D21B03FB94
:100EB0000CF761EB07010CFB0EF7B0EB074072EB90
:100EC00017420CFB08F734BFA2EB0742B2EB074214
:100ED00061EB174115EB1C154FEA813141EA924154
:100EE0004FEA823242EA90424FEA80304FEA0C7673
:100EF00044F1000448EA03434EEA0B484FF0000E69
:100F0000B2EB080C71EB030724BF624639464EEB87
:100F10000E0E4FF0000B0018524149414BEB0B0BEA
:100F2000B2EB080C71EB03077BF1000B24BF6246A8
:100F300039464EEB0E0E4FF0000B0018524149415E
:100F40004BEB0B0BB2EB080C71EB03077BF1000BC7
:100F500024BF624639464EEB0E0E51EA020718BF17
:100F600046F0010616EB0E7655F1000254F1000131
:100F700003D5BDE88901BDE80088BDE88901BDE869
:100F80000048B619524141EB0101A3F1010370473A
:100F900080807F7E7D7C7B7A7978777676757473B6
:100FA000727171706F6E6E6D6C6C6B6A6A69686875
:100FB000676666656464636362616160605F5F5E0B
:100FC0005E5D5D5C5C5B5B5A5A5959585857575681
:100FD00056555555545453535252525151505050E6
:100FE0004F4F4F4E4E4D4D4D4C4C4C4B4B4B4A4A38
:100FF0004A4949494848484747474746464645457C
:1010000045444444444343434342424242414141B4
:10101000002B26D4770021D01CB54FEA370703B444
:101020004FF010004FF010014FF000000FBCBDE872
:1010300010400BF1010BBBF1010F08BF5FEA17076E
:1010400022BF12F1010211F101014FF0004143F101
:10105000000300F0004043EA00007047F9D357084E
:10106000DAE746EA064613F1400F4FEA16461FDD5F
:1010700013F1200FDFBF16430A46002120335B42E5
:10108000C8D0C3F1200746EA064602FA07F74FEA3E
:10109000164646EA0706C3F1200722FA03F201FAD0
:1010A00007F721FA03F14FF0000342EA0702B1E724
:1010B00046EA020646EA06464FEA164646EA0106B0
:1010C000BCBF46EA0646360C4FF000034FF0000264
:1010D0004FF000019EE72DE9C048934630B491E8F7
:1010E000380007C831EA400C48BF34EA430C03D546
:1010F000FFF7F2FDFFF78CFFF0BCBDE800882DE99B
:10110000C048934630B491E8380007C810F0804FCB
:1011100008BF13F0804F03D100F005F8FFF778FF08
:10112000F0BCBDE8008820F07F4780EA030023F090
:101130007F4C07EB0C03A3F57C5300F00040A3F1B8
:10114000FE0392F0000F00F0B38095F0000F00F066
:1011500077802DE901494FEA11404FEA144621EA10
:10116000004800FB06FC24EA064708FB06F607FBDE
:1011700008F800FB07F718EB06484CEB164C4FEA53
:10118000124B18EB07484FEA15464CEB174022EA82
:101190000B4E0BFB06FC25EA06470EFB06F607FB8B
:1011A0000EFE0BFB07F71EEB064E4CEB164C4FF0FA
:1011B00000061EEB074E4CEB174B18EB0B0840F1EB
:1011C000000018EB0E0B58EB000840F100008F1ADE
:1011D0004FF000013CBFC943661B14BFB5EB040CC4
:1011E00000213CBFC943F61B4FEA17444EEA8E0E5E
:1011F00027EA04454FEA1C4704FB07622CEA074C28
:1012000005FB07F70CFB05F604FB0CFC16EB074689
:1012100042EB174216EB0C4642EB1C421BEB060658
:1012200058EB0202414146EA9E0601D5BDE801891C
:10123000B619524141EB0101A3F10103BDE8018957
:101240004FEA14454FEA114724EA054621EA074CC4
:1012500005FB07F406FB07F70CFB06F105FB0CFC8E
:1012600011EB074144EB17444FEA124711EB0C41D5
:1012700044EB1C4422EA074C05FB07F206FB07F788
:101280000CFB06F605FB0CFC16EB074642EB17427F
:1012900016EB0C4642EB1C456A1854F1000148BF9E
:1012A0007047B619524141EB0101A3F101037047A8
:1012B00095F0000F37D04FEA11424FEA144721EA68
:1012C000024624EA074C02FB07F106FB07F70CFB7A
:1012D00006F402FB0CFC14EB074441EB17414FEA08
:1012E000154714EB0C4441EB1C4125EA074C02FB6B
:1012F00007F506FB07F70CFB06F602FB0CFC16EBEA
:10130000074645EB174516EB0C4645EB1C421219F8
:1013100051F1000148BF7047B619524141EB01013C
:10132000A3F1010370474FEA14454FEA114724EA3D
:10133000054621EA074C05FB07F106FB07F70CFB06
:1013400006F24FF0000605FB0CFC12EB074241EBE6
:10135000174112EB0C4251EB1C4148BF70479218E9
:1013600041EB0101A3F1010370470000024800684E
:1013700002490860704700007C0000200400002043
:1013800000BFFEE77047000010B50A2001F03CFDE9
:101390000121054800F0B2FA08B901F0C1FF0120AF
:1013A00000F0DAF810BD0000001C014010B50A2062
:1013B00001F02AFD4FF48061234800F09FFA08B93C
:1013C00002F000F84FF4806000F0C6F84FF40061BE
:1013D0001D4800F093FA08B902F080F84FF400605D
:1013E00000F0BAF84FF48051174800F087FA08B9B6
:1013F00002F000F94FF4805000F0AEF84FF40051C5
:10140000114800F07BFA08B902F080F94FF400505F
:1014100000F0A2F84FF480410B4800F06FFA08B9D1
:1014200002F0CEF94FF4804000F096F84FF40041FE
:10143000054800F063FA08B902F01CFA4FF40040C6
:1014400000F08AF810BD0000001C014010B50A2011
:1014500001F0DAFC0221054800F050FA08B902F068
:1014600047FA022000F078F810BD0000001C01408F
:1014700010B50A2001F0C8FC0421054800F03EFA2E
:1014800008B902F087FA042000F066F810BD0000E9
:10149000001C014010B50A2001F0B6FC08210548E7
:1014A00000F02CFA08B902F0C7FA082000F054F84E
:1014B00010BD0000001C014010B50A2001F0A4FC82
:1014C0001021054800F01AFA08B902F007FB1020B5
:1014D00000F042F810BD0000001C014010B50A20C9
:1014E00001F092FC20211B4800F008FA08B902F034
:1014F00047FB202000F030F84021164800F0FEF9AC
:1015000008B902F08DFB402000F026F88021114838
:1015100000F0F4F908B902F0D5FB802000F01CF8C7
:101520004FF480710B4800F0E9F908B902F01CFC97
:101530004FF4807000F010F84FF40071054800F08F
:10154000DDF908B902F062FC4FF4007000F004F815
:1015500010BD0000001C01400149086070470000F8
:1015600014040140002123498279002A3AD00A4616
:10157000126803689A430B461A600A1D12680368D2
:101580009A430B1D1A60027911440A6803681A43D2
:101590000A60184A0832126803689A43154B0833E8
:1015A0001A601A1D126803689A43124B0C331A60B2
:1015B0004279102A0ED11A1F126803681A430D4B84
:1015C00008331A601A1D126803681A43094B0C335A
:1015D0001A600DE00749427911440A6803681A430A
:1015E0000A6005E0027911440A6803689A430A60B8
:1015F000704700000004014051B18200A2F1C042D6
:10160000126842F001038200A2F1C042136009E0B7
:101610008200A2F1C0421268034B1A408300A3F17A
:10162000C0431A6070470000FEFF0F00D0E90112AE
:101630001143C2681143026911434269114382692F
:101640001143C2691143026A1143426A1143826A1B
:101650001143C26A1143026B114302689200A2F166
:10166000C0421160816808290BD101688900A1F18D
:10167000C041096841F0400201688900A1F1C04100
:101680000A60416B0968426B526841EA0211426B81
:10169000926841EA0221426B928941EA0241426B1F
:1016A000128A41EA0251426B127D41EA0261426BA9
:1016B000926911430268521C9200A2F1C04211606B
:1016C000C16AB1F5804F1BD1816B0968826B52688A
:1016D00041EA0211826B926841EA0221826B128A0E
:1016E00041EA0251826B127D41EA0261826B92698A
:1016F000114302689200A2F1C042C2F8041107E04F
:101700006FF0704201688900A1F1C041C1F8042165
:101710007047000030B500228B071C0F0F2303FA1F
:1017200004F20B4B8C1053F824309343084C8D106B
:1017300044F8253023468C1053F824308C07240FAE
:1017400000FA04F42343024C8D1044F8253030BDD8
:10175000080001402DE9F041024600250026002046
:1017600000230024002791F803C00CF00F0591F826
:1017700003C00CF0100CBCF1000F03D091F802C0B4
:101780004CEA050591F800C0BCF1000F31D0146897
:1017900000202BE04FF0010C0CFA00F3B1F800C070
:1017A0000CEA03069E4220D183004FF00F0C0CFA86
:1017B00003F7BC4305FA03FC4CEA040491F803C0A8
:1017C000BCF1280F06D14FF0010C0CFA00FCC2F856
:1017D00014C00AE091F803C0BCF1480F05D14FF0E6
:1017E000010C0CFA00FCC2F810C0401C0828D1D330
:1017F0001460B1F800C0BCF1FF0F34DD5468002064
:101800002EE000F1080C4FF0010808FA0CF3B1F8D3
:1018100000C00CEA03069E4221D183004FF00F0C5A
:101820000CFA03F7BC4305FA03FC4CEA040491F8F4
:1018300003C0BCF1280F05D100F1080C08FA0CF820
:10184000C2F8148091F803C0BCF1480F07D100F131
:10185000080C4FF0010808FA0CF8C2F81080401C80
:101860000828CED35460BDE8F0810000F0B50A46E8
:10187000002300240021002500F00046B6F1004FAF
:1018800002D11D4EF16901E01B4E7168C0F30345A2
:1018900083B200F44016B6F5401F08D121F0706104
:1018A000154E766826F07066134F7E6012E000F4E5
:1018B0008016B6F5801F06D1032606FA05F4A1436B
:1018C00041F0706106E0460D360103FA06F6B143B9
:1018D00041F0706122B1460D360103FA06F631433C
:1018E00000F00046B6F1004F02D1034EF16101E075
:1018F000014E7160F0BD0000000001400246002072
:1019000093680B400BB1012000E00020704700BF3E
:10191000FEE70000024800680249086170470000C5
:1019200078000020A4030020024800680249C86033
:101930007047000078000020A403002002480068DF
:10194000024988607047000078000020A40300204E
:1019500070B506460F484088401E83B20D48008887
:10196000401E82B20021084600F009F900240CE074
:10197000002504E0304600F073FA681C85B2054883
:101980004088A842F6DC601C84B202480088A0426D
:10199000EEDC70BDD402002000B502467AB93620D4
:1019A00000F052FA002000F055FA4FF4F0700C49A4
:1019B00048804FF4A0700880002088710EE0362027
:1019C00000F042FA602000F045FA4FF4A07004499C
:1019D00048804FF4F07008800120887100BD00003D
:1019E000D402002070B504460D4616462B4622460A
:1019F0002946204600F0C3F8304600F031FA70BDA9
:101A00002DE9FF4F84B081468A4600200390029062
:101A10000698A0EB09050798A0EB0A06CDF80490FC
:101A2000CDF800A0002D01DD012705E00DB900274C
:101A300002E04FF0FF376D42002E02DD4FF001084B
:101A400006E016B94FF0000802E04FF0FF3876428A
:101A5000B54201DD2C4600E034464FF0000B21E09A
:101A6000009A91B2019A90B200F022F803982844AB
:101A700003900298304402900398A04205DD039839
:101A8000001B03900198384401900298A04205DDA4
:101A90000298001B02900098404400900BF1010056
:101AA0001FFA80FB601C8345DADD08B0BDE8F08FCB
:101AB00030B504460D462B4622462946204600F006
:101AC0005EF80248008800F0CBF930BDD00200205B
:101AD000F0B504460D4616461F462B4632462946AB
:101AE0002046FFF78DFF3B46224629462046FFF75A
:101AF00087FF3B46324639462046FFF781FF3B468B
:101B0000324629463046FFF77BFFF0BD2DE9F04312
:101B100004460D4616461F46DDF81C80B44201DC23
:101B2000BD4201DDBDE8F0833B46324629462046F2
:101B300000F025F8301B401C84B2781B401C85B295
:101B40000BE0A94602E0404600F08AF9B9F1000036
:101B5000A9F101011FFA81F9F5D1201EA4F10101BB
:101B60008CB2EED100BFDDE710B50246012000E0E7
:101B700050430B1EA1F10104E1B2F9D110BD70B5C3
:101B800004460D462A2000F05FF92646E11704EBD3
:101B90001161C1F30F2000F05DF9E11704EB116151
:101BA0000912A4EB012188B200F054F91646D117AE
:101BB00002EB1161C1F30F2000F04CF91646D1176A
:101BC00002EB11610912A2EB012188B200F042F987
:101BD0002B2000F039F92E46E91705EB1161C1F30E
:101BE0000F2000F037F9E91705EB11610912A5EB99
:101BF000012188B200F02EF91E46D91703EB1161BE
:101C0000C1F30F2000F026F91E46D91703EB11612E
:101C10000912A3EB012188B200F01CF92C2000F07E
:101C200013F970BD2DE9F84F80460E4617461C4645
:101C3000B3462046E31704EB5373DB1021464FEA0B
:101C4000E47C04EB5C7C4FEAEC0CA4EBCC0CBCF128
:101C5000000F02D04FF0010C01E04FF0000C634484
:101C6000224604EBD27C4FEA6C0C03FB0CF3DBB294
:101C70000093A7F12000C7B2002556E00C2C07D135
:101C800007EB47002B4901EB800010F8059013E0AB
:101C9000102C05D1284800EB071010F805900BE038
:101CA000182C07D107EBC700244901EB800010F87E
:101CB000059001E0BDE8F88F4FF0000A2FE009F031
:101CC000800030B11E48028831464046FFF78AFE48
:101CD00007E00A9828B91B48028831464046FFF7BA
:101CE00081FE4FEA49604FEA1069701C86B21648BF
:101CF0004088B04200DCDDE7A6EB0B00A0420AD131
:101D00005E4608F101001FFA80F80F480088404540
:101D100000DCCFE706E00AF1010000F0FF0ABAF1AB
:101D2000080FCCDB00BF681CC5B200988542A5DB5C
:101D300000BFBFE792550008065A0008F65F00088A
:101D4000D0020020D2020020D40200202DE9FF4F53
:101D500081B0074691461E460E9D4FF0000A0024B2
:101D600039E0301B401EC1B20A20FFF7FDFEB9FB6F
:101D7000F0F00A21B0FBF1F201FB1208BAF1000FFA
:101D800016D1701EA04213DDB8F1000F0ED1002055
:101D9000AB4605EBDB71491001FB0471009088B282
:101DA0002B4620220299FFF73DFF12E04FF0010A77
:101DB0000020AB4605EBDB71491001FB047100907C
:101DC00088B208F13001CAB22B460299FFF72AFF08
:101DD00000BF601CC4B2B442C3DB05B0BDE8F08FE5
:101DE0002DE9F84704460D4690469946DDE9096716
:101DF00004F0FF0A08EB04001FFA80F809EB050065
:101E00001FFA80F916E0444502DB5446A81985B252
:101E10004D4500DB14E0002000903A783346294617
:101E20002046FFF7FFFE304606EBD07104EB610160
:101E30008CB27F1C38787E2802DC38782028E2DAE1
:101E400000BFBDE8F8870000014908807047000026
:101E5000FE07006C01490880704700000008006C14
:101E600001490880704700000008006C00BFFEE7D1
:101E70007047000070B5002100230F22C47804B31E
:101E8000154C246804F4E064C4F5E064210AC1F14F
:101E90000403CA40447804FA03F1847814402143CF
:101EA00009010E4C0678A155047804F01F050124A1
:101EB000AC4005786D11AD0005F1E025C5F8004195
:101EC00009E0047804F01F050124AC40044D0678B5
:101ED000761145F8264070BD0CED00E000E400E00E
:101EE00080E100E002490143024A116070470000AE
:101EF0000000FA050CED00E0064807498860074835
:101F0000C86007480861002008604860486188612F
:101F10007047000052B89E3EA40300203333B33E06
:101F2000CDCC4C3E7047000029B1064A52690243AD
:101F3000044B5A6104E0034A52698243014B5A61DF
:101F4000704700000010024029B1064AD2690243DE
:101F5000044BDA6104E0034AD2698243014BDA613F
:101F6000704700000010024029B1064A92690243FE
:101F7000044B9A6104E0034A92698243014B9A61DF
:101F8000704700000010024030B5002100220024FC
:101F900000232D4D6D6805F00C0121B1042905D0F9
:101FA000082923D105E0294D056022E0274D056071
:101FB0001FE0254D6D6805F47012234D6D6805F422
:101FC0008034022505EB92421CB9214D5543056032
:101FD0000BE01D4D6D6805F400351DB11C4D5543DA
:101FE000056002E0194D5543056002E0174D05609C
:101FF00000BF00BF144D6D6805F0F0010909154DD3
:102000006B5C0568DD4045600F4D6D6805F4E0616F
:10201000090A104D6B5C4568DD4085600A4D6D68AE
:1020200005F46051C90A0B4D6B5C4568DD40C56025
:10203000054D6D6805F44041890B074D6B5CC56823
:10204000B5FBF3F5056130BD0010024000127A00C7
:1020500000093D001C0000202C000020704710B536
:1020600000F002F810BD00000CB5002001900090B7
:102070003348006840F480303149086000BF304880
:10208000006800F4003000900198401C0190009816
:1020900018B90198B0F5A06FF1D12948006800F493
:1020A000003010B10120009001E000200090009865
:1020B000012843D12348006840F0100021490860FE
:1020C0000846006820F0030008600846006840F0F9
:1020D000020008601A48406819494860084640688C
:1020E00048600846406840F48060486008464068A0
:1020F00020F47C1048600846406840F4E8104860CE
:102100000846006840F08070086000BF0C48006816
:1021100000F000700028F9D00948406820F0030062
:10212000074948600846406840F00200486000BF28
:102130000348406800F00C000828F9D10CBD0000ED
:102140000010024000200240024800680249086076
:10215000704700007C00002004000020042808D103
:102160004FF0E021096941F004014FF0E0221161D4
:1021700007E04FF0E021096921F004014FF0E0226F
:10218000116170477047000010B51348006840F0B7
:1021900001001149086008464068104908400E498E
:1021A0004860084600680E4908400B490860084628
:1021B000006820F4802008600846406820F4FE0093
:1021C00048604FF41F008860FFF749FF4FF0006040
:1021D0000449086010BD0000001002400000FFF834
:1021E000FFFFF6FE08ED00E000B59DB001210802FA
:1021F000FFF79AFE01200790002008900F20099019
:1022000000200A900B900C900D90152000900190EA
:10221000052002900020039004900590069006206F
:102220000E9000200F90109010201190002012901E
:1022300014901390159016904FF480501790002032
:1022400018904FF48040199000201A9007A81B9016
:10225000CDF870D00EA8FFF7E9F901210620FFF7AD
:10226000CBF91DB000BD000008B501214FF4B070DE
:10227000FFF77AFE4CF23370ADF8000018208DF8AD
:10228000030003208DF8020069461048FFF762FA48
:102290004FF68070ADF8000018208DF80300032081
:1022A0008DF8020069460A48FFF754FA41F201002E
:1022B000ADF8000018208DF8030003208DF802000F
:1022C00069460448FFF746FA08BD000000140140C3
:1022D000001801400020014010B5FFF7C5FFFFF7CF
:1022E00083FF322000F090FDD320FFF7ADFD8E4834
:1022F00000888E4988808C48008888808A480088B9
:102300008880084680884FF6FF7101EA00208749DF
:1023100088800846808884490988084383498880E2
:102320000846818882A0FDF7A3FFB020FFF78CFD4F
:102330000020FFF78FFD1120FFF786FD142000F02D
:1023400063FDB320FFF780FD0220FFF783FD00202F
:10235000FFF780FD0020FFF77DFD0020FFF77AFDED
:10236000C020FFF771FD1020FFF774FD3B20FFF741
:1023700071FD0020FFF76EFD0220FFF76BFD0020CE
:10238000FFF768FD0120FFF765FD0020FFF762FD04
:102390004320FFF75FFDC120FFF756FD1020FFF738
:1023A00059FD1020FFF756FD0820FFF753FD0820C8
:1023B000FFF750FDC420FFF747FD1120FFF74AFD4E
:1023C0000720FFF747FD0320FFF744FD0320FFF739
:1023D00041FDC620FFF738FD0020FFF73BFDC82078
:1023E000FFF732FD0320FFF735FD0320FFF732FD35
:1023F0001320FFF72FFD5C20FFF72CFD0320FFF7D4
:1024000029FD0720FFF726FD1420FFF723FD0820F4
:10241000FFF720FD0020FFF71DFD2120FFF71AFD2B
:102420000820FFF717FD1420FFF714FD0720FFF722
:1024300011FD5320FFF70EFD0C20FFF70BFD1320BD
:10244000FFF708FD0320FFF705FD0320FFF702FD5E
:102450002120FFF7FFFC0020FFF7FCFC3520FFF7F1
:10246000F3FC0020FFF7F6FC3620FFF7EDFC002020
:10247000FFF7F0FC3A20FFF7E7FC5520FFF7EAFCF6
:102480004420FFF7E1FC0020FFF7E4FC0120FFF708
:10249000E1FCB620FFF7D8FC0020FFF7DBFC222090
:1024A000FFF7D8FC3B20FFF7D5FCD020FFF7CCFC92
:1024B0000720FFF7CFFC0720FFF7CCFC1D20FFF71C
:1024C000C9FCD120FFF7C0FC0020FFF7C3FC0320AC
:1024D000FFF7C0FC0020FFF7BDFCD220FFF7B4FCE3
:1024E0000320FFF7B7FC1420FFF7B4FC0420FFF72C
:1024F000B1FC2920FFF7A8FC142000F085FCB420D3
:10250000FFF7A2FC0020FFF7A5FC142000F07CFCE4
:102510002C20FFF799FC0020FFF73EFA4FF6FF70E2
:10252000FFF716FA10BD00000008006CD40200206E
:10253000204C43442049443A25780D0A000000000D
:10254000F0B50C46154600220021068C4FF6FE77AA
:102550003E400684028B018C4FF60C7632407E1C86
:1025600006EA03162E433243104EB0420ED0104EF0
:10257000B0420BD0B0F1804F08D00E4EB04205D023
:102580000D4EB04202D00D4EB04206D14FF6FD7650
:10259000314044F00106314305E04FF6F576314015
:1025A00044F00106314302830184F0BD002C014058
:1025B000003401400004004000080040000C0040CE
:1025C000F0B50C461546002200210026078C4FF678
:1025D000EF7C07EA0C070784028B018C4FF6FF772C
:1025E00007EA041640F6FF473A404FF6FF7707EA3E
:1025F00003373A434FF6FF7707EA05273A43114F6F
:10260000B8420ED0104FB8420BD0B0F1804F08D076
:102610000E4FB84205D00E4FB84202D00D4FB8420F
:1026200006D14FF6DF77394046F01007394305E011
:102630004FF65F77394044F0100739430283018435
:10264000F0BD0000002C01400034014000040040B7
:1026500000080040000C0040F0B50C461546002272
:1026600000210026078C4FF6FF6C07EA0C07078451
:10267000828B018C4FF6FF7707EA04264FF60C7722
:102680003A404FF6FF7707EA03172F433A43114FBB
:10269000B8420ED0104FB8420BD0B0F1804F08D0E6
:1026A0000E4FB84205D00E4FB84202D00D4FB8427F
:1026B00006D14FF6FF57394046F48077394305E09D
:1026C0004FF2FF57394044F48077394382830184C5
:1026D000F0BD0000002C0140003401400004004027
:1026E00000080040000C0040F0B50C4615460022E2
:1026F00000210026078C4EF6FF7C07EA0C070784B2
:10270000828B018C4FF6FF7707EA043640F6FF47CD
:102710003A404FF6FF7707EA05273A434FF6FF772F
:1027200007EA03373A43114FB8420ED0104FB84270
:102730000BD0B0F1804F08D00E4FB84205D00E4FED
:10274000B84202D00D4FB84206D14DF6FF7739405E
:1027500046F48057394305E047F6FF57394044F4C3
:102760008057394382830184F0BD0000002C014072
:10277000003401400004004000080040000C00400C
:1027800010B50221074800F0A4F8012808D1064836
:102790000068401C044908600221024800F07BF8F0
:1027A00010BD0000000C00403C0000202DE9F0416D
:1027B0000121284800F08DF8012849D126480068F9
:1027C000401C2549086025480068401C23490860D2
:1027D00023480078401C2249087001211D4800F060
:1027E00057F81D480068B0F57A7F22D300201A49B7
:1027F00008601C48006802F053FD07461A4902F0C1
:1028000051FC044602F0C0FB05462A460B4617A0C1
:10281000FDF72EFD1348006802F042FD0446124900
:1028200002F040FC1349086001F0ACFD00200D49A6
:1028300008600B4800780A280ADB00200849087065
:102840000C48006802F00CFD84B2204601F0B0FC98
:10285000BDE8F081001000406C00002070000020F6
:10286000740000203C0000200000A743252E3266A3
:102870000A0000004000002021B1028842F08002DE
:10288000028004E002884FF67F731A40028070478E
:10289000CA4302827047CA430282704721B102884C
:1028A00042F00102028004E002884FF6FE731A40F3
:1028B0000280704731B1B0F8442042F40042A0F8E1
:1028C000442005E0B0F84420C2F30E02A0F84420F2
:1028D000704730B50246002000230024158A05EA1F
:1028E0000103958905EA010413B10CB1012000E050
:1028F000002030BD70B505460C46244885420ED0F8
:10290000234885420BD0B5F1804F08D0214885423D
:1029100005D02148854202D02048854200D100E000
:1029200000BF208850B92389A28861882846FFF714
:1029300007FEE188284600F094F825E02088042866
:102940000AD12389A28861882846FFF739FEE188E9
:10295000284600F08FF817E0208808280AD123893C
:10296000A28861882846FFF777FEE188284600F0B4
:102970008EF809E02389A28861882846FFF7B4FE13
:10298000E188284600F08CF870BD0000002C014062
:10299000003401400004004000080040000C0040EA
:1029A0001AB183890B43838102E083898B4383813E
:1029B0007047000070B5002400220023058C4FF6FC
:1029C000FE7635400584028C8388048B4FF68F7524
:1029D0002C40B51E2C400D882C43751E2A400D89B5
:1029E0002A434D882A43144DA8420BD0134DA842C8
:1029F00008D0134DA84205D0124DA84202D0124D66
:102A0000A84213D14FF6F7752A404D892A434FF655
:102A1000FB752A408D882A434FF6FF652B404FF601
:102A2000FF552B408D892B43CD892B438380048315
:102A3000CD888586028470BD002C014000340140A1
:102A40000040014000440140004801400A46002186
:102A5000018B4FF6F773194011430183704781864C
:102A60007047028B4FF6F3731A400283028B0A43BE
:102A700002837047028B4FF2FF331A400283028BAE
:102A80004FF6FF7303EA01231A4302837047828BD8
:102A90004FF6F3731A408283828B0A438283704716
:102AA000828B4FF2FF331A408283828B4FF6FF7383
:102AB00003EA01231A438283704700000022028840
:102AC0001D4B98420ED01D4B98420BD0B0F1804F59
:102AD00008D01B4B984205D01A4B984202D01A4B93
:102AE000984204D14FF68F731A404B881A43174B04
:102AF000984207D0164B984204D04FF6FF431A4035
:102B0000CB881A4302808B8883850B8803850A4B08
:102B100098420BD0094B984208D00E4B984205D0F2
:102B20000D4B984202D00D4B984201D10B7A03868F
:102B30000123838270470000002C014000340140D3
:102B40000004004000080040000C0040001000405D
:102B50000014004000400140004401400048014092
:102B600010B540F225511D4800F04AF810B31B483B
:102B700000F002F9C4B21A48008800F40040C8B955
:102B80001748008800F4804060B10A2C03D0002070
:102B90001349088020E01248008840F400401049A2
:102BA000088019E00D2C06D10D48008840F48040C3
:102BB0000B49088010E00A480088C0F30D0009495D
:102BC0000C5407480088401C0549088008460088C6
:102BD000C72801DD0020088010BD0000003801403A
:102BE00038000020DC02002021B1828942F400522A
:102BF000828104E082894DF6FF731A40828170471A
:102C000070B50246002400230025002040F66A1615
:102C1000B14200D100BFC1F3421501F01F030126EC
:102C200006FA03F3012D02D19689334006E0022D06
:102C300002D1168A334001E0968A33400C120126F5
:102C400006FA04F41688344013B10CB1012000E0F8
:102C5000002070BDF0B503460024002600250020AA
:102C600040F66A17B94200D100BF1846C1F34214BA
:102C700001F01F06012707FA06F5012C01D10C30DF
:102C800004E0022C01D1103000E014301AB10768C2
:102C90002F43076002E00768AF430760F0BD000004
:102CA0002DE9F04786B005460E460024A24600BF37
:102CB000A1460027B08900B100BF2F462C8A4CF6F0
:102CC000FF700440F08804432C82AC894EF6F31068
:102CD0000440B08831890843718908430443AC81BA
:102CE000AC8A4FF6FF400440B0890443AC8201A88F
:102CF000FFF74AF91F48874202D1DDF810A001E032
:102D0000DDF80CA0A88900F4004040B10AEBCA002D
:102D100000EB0A1031684900B0FBF1F807E00AEB5C
:102D2000CA0000EB0A1031688900B0FBF1F864209A
:102D3000B8FBF0F004012009642101FB1089A88987
:102D400000F4004040B1322000EBC900B0FBF1F0CC
:102D500000F00700044308E0322000EB0910642172
:102D6000B0FBF1F000F00F0004432C8106B0BDE889
:102D7000F08700000038014001468888C0F3080051
:102D8000704700BFFEE7490050EAC12018BF042089
:102D90004A0D18BF40F0010040F2FF72B2EB515FE4
:102DA00008BF40F00200012808BF052070473038F6
:102DB0000A2801D20120704700207047014600BF59
:102DC0007047000010B56FF00400FFF7C7F90A481C
:102DD00000680A49B0FBF1F009490870084600781C
:102DE00000EB4001C1EBC0104FF6FF7101EAC000DB
:102DF0000449088010BD00000800002000127A007D
:102E000030000020320000200146114A12884A4357
:102E10004FF0E0235A6100229A611A46126942F08B
:102E200001021A6100BF4FF0E022106900F00102B8
:102E30001AB100F48032002AF5D04FF0E022126976
:102E400022F001024FF0E0231A6100229A617047DC
:102E50003200002000B589B001210820FFF774F886
:102E600001210520FFF780F804208DF823000120C0
:102E7000ADF8200003208DF8220008A91E48FEF7B7
:102E800069FC0020ADF81A00ADF8160040F283305E
:102E9000ADF818000020ADF814008DF81C0005A94D
:102EA0001648FFF70BFE0020ADF80800ADF8100043
:102EB000ADF80A00ADF80E000120ADF80C0002A933
:102EC0000F48FFF717FD012202210D48FFF768FDAB
:102ED00032208DF8040001208DF807008DF80500E0
:102EE00000208DF8060001A8FEF7C4FF0121044868
:102EF000FFF7D4FC09B000BD00080140002C0140E0
:102F0000000C00400EB500F0DFFC01210846FFF781
:102F10002BF800210520FEF7FDFB012001908DF824
:102F20000A0000208DF808000C208DF8090001A887
:102F3000FEF718FB06208DF8000001208DF8030035
:102F40008DF801008DF802006846FEF793FF01211D
:102F50000520FEF7DFFB0220019001208DF80A001A
:102F600000208DF808000C208DF8090001A8FEF75C
:102F7000F9FA07208DF8000001208DF803008DF884
:102F800001008DF802006846FEF774FF022105205B
:102F9000FEF7C0FB0420019001208DF80A000020FC
:102FA0008DF808000C208DF8090001A8FEF7DAFA68
:102FB00008208DF8000001208DF803008DF8010035
:102FC0008DF802006846FEF755FF03210520FEF745
:102FD000A1FB0820019001208DF80A0000208DF847
:102FE00008000C208DF8090001A8FEF7BBFA0920A3
:102FF0008DF8000001208DF803008DF801008DF898
:1030000002006846FEF736FF04210520FEF782FB2A
:103010001020019001208DF80A0000208DF8080092
:103020000C208DF8090001A8FEF79CFA0A208DF803
:10303000000001208DF803008DF801008DF80200DA
:103040006846FEF717FF05210846FEF763FB2020C0
:10305000019001208DF80A0000208DF808000C2056
:103060008DF8090001A8FEF77DFA17208DF8000001
:1030700001208DF803008DF801008DF802006846EC
:10308000FEF7F8FE06210520FEF744FB40200190E4
:1030900001208DF80A0000208DF808000C208DF822
:1030A000090001A8FEF75EFA17208DF80000012044
:1030B0008DF803008DF801008DF802006846FEF7D8
:1030C000D9FE07210520FEF725FB80200190012075
:1030D0008DF80A0000208DF808000C208DF80900FA
:1030E00001A8FEF73FFA17208DF8000001208DF8A7
:1030F00003008DF801008DF802006846FEF7BAFE65
:1031000008210520FEF706FB4FF480700190012096
:103110008DF80A0000208DF808000C208DF80900B9
:1031200001A8FEF71FFA17208DF8000001208DF886
:1031300003008DF801008DF802006846FEF79AFE44
:1031400009210520FEF7E6FA4FF4007001900120F6
:103150008DF80A0000208DF808000C208DF8090079
:1031600001A8FEF7FFF917208DF8000001208DF867
:1031700003008DF801008DF802006846FEF77AFE24
:103180000A210520FEF7C6FA4FF480600190012065
:103190008DF80A0000208DF808000C208DF8090039
:1031A00001A8FEF7DFF928208DF8000001208DF836
:1031B00003008DF801008DF802006846FEF75AFE04
:1031C0000B210520FEF7A6FA4FF4006001900120C4
:1031D0008DF80A0000208DF808000C208DF80900F9
:1031E00001A8FEF7BFF928208DF8000001208DF816
:1031F00003008DF801008DF802006846FEF73AFEE4
:103200000C210520FEF786FA4FF480500190012032
:103210008DF80A0000208DF808000C208DF80900B8
:1032200001A8FEF79FF928208DF8000001208DF8F5
:1032300003008DF801008DF802006846FEF71AFEC3
:103240000D210520FEF766FA4FF400500190012091
:103250008DF80A0000208DF808000C208DF8090078
:1032600001A8FEF77FF928208DF8000001208DF8D5
:1032700003008DF801008DF802006846FEF7FAFDA4
:103280000E210520FEF746FA4FF480400190012000
:103290008DF80A0000208DF808000C208DF8090038
:1032A00001A8FEF75FF928208DF8000001208DF8B5
:1032B00003008DF801008DF802006846FEF7DAFD84
:1032C0000F210520FEF726FA4FF40040019001205F
:1032D0008DF80A0000208DF808000C208DF80900F8
:1032E00001A8FEF73FF928208DF8000001208DF895
:1032F00003008DF801008DF802006846FEF7BAFD64
:103300000EBD000000BF054A128802F04002002AEC
:10331000F9D0C2B2014B1B1D1A8070470038014022
:1033200008B52148006800EB8000002101EB400057
:103330001D49086010201D4900900988373188B266
:10334000012300224FF4A071FEF700FD174800682A
:1033500010301649086016480078012805D1154834
:10336000007810B91448007898B11148007830B945
:1033700010480078012802D10F48007848B10C4865
:10338000007878B90B48007860B90B4800780128BC
:1033900008D10A480078012804D109480078401C67
:1033A0000749087008BD0000AC000020C8020020DA
:1033B000B0000020B1000020B2000020BD000020BD
:1033C000BC0000202DE9FC413848007818B90120E4
:1033D0003649087006E035480078012802D10020FF
:1033E0003249087031480078002835D130480078DB
:1033F000002831D12F48007870BB2F48006801F0B9
:1034000067FF2E4908602E4800782E49087012E0A8
:103410002A48006801F0B8FD064600222A4B01F058
:1034200073FA044601F096F92449086025480078AB
:10343000401E24490870234800780028E8DC1F4813
:10344000006822490860FEF779FA00201A490860EE
:103450001B4908701E49086014480078012809D1EA
:103460001C4810210F236422CDE900100021A02068
:10347000FEF7B6FC0D480078A8B9174810210F23B5
:103480006422CDE900100021A020FEF7A9FC12481B
:1034900010210F234FF49672CDE900104FF4A07164
:1034A0003720FEF79DFCBDE8FC810000B000002045
:1034B000B1000020B2000020AC000020B8000020C5
:1034C000BC000020BE000020000024407800002046
:1034D000C8020020BF000020D30000202DE9FC41DD
:1034E0003848007818B901203649087006E0354898
:1034F0000078012802D10020324908703248007853
:10350000002835D12F480078002831D12F48007885
:1035100070BB2F48006801F0DBFE2E4908602E4882
:1035200000782E49087012E02A48006801F02CFD4E
:10353000064600222A4B01F0E7F9044601F00AF999
:103540002449086025480078401E24490870234813
:1035500000780028E8DC1F48006822490860FEF770
:10356000E3F900201A4908601B4908701E490860E9
:1035700014480078012809D11C4810210F23642227
:10358000CDE900101121A020FEF72AFC0D4800789B
:10359000A8B9174810210F236422CDE9001011218A
:1035A000A020FEF71DFC124810210F234FF4967245
:1035B000CDE900104FF4A0713720FEF711FCBDE8F3
:1035C000FC810000B1000020B0000020B20000200B
:1035D000AC000020B8000020BC000020BE0000208D
:1035E0000000244078000020C8020020BF00002016
:1035F000D30000202DE9FC413848007818B901209B
:103600003649087006E035480078012802D10020CC
:103610003249087032480078002835D131480078A6
:10362000002831D12D48007870BB2F48006801F088
:103630004FFE2E4908602E4800782E49087012E08F
:103640002A48006801F0A0FC064600222A4B01F03F
:103650005BF9044601F07EF82449086025480078AB
:10366000401E24490870234800780028E8DC1F48E1
:10367000006822490860FEF74DF900201A490860E9
:103680001B4908701E49086014480078012809D1B8
:103690001C4810210F236422CDE900102221A02014
:1036A000FEF79EFB0D480078A8B9174810210F239C
:1036B0006422CDE900102221A020FEF791FB1248E0
:1036C00010210F234FF49672CDE900104FF4A07132
:1036D0003720FEF785FBBDE8FC810000B20000202A
:1036E000B0000020B1000020AC000020B800002095
:1036F000BC000020BE000020000024407800002014
:10370000C8020020BF000020D30000201CB52448C0
:10371000007818B901202249087006E02048007896
:10372000012802D100201E4908701D48007878B990
:103730001C48007860B91C4800681C490860FEF706
:1037400003FD0020184908601949087019490860EC
:1037500013480078012809D1174810210F2364224B
:10376000CDE900103321A020FEF73AFB0C48007889
:10377000A8B9124810210F236422CDE9001033218B
:10378000A020FEF72DFB0D4810210F234FF4967259
:10379000CDE900104FF4A0713720FEF721FB1CBDCE
:1037A000B3000020B4000020AC0000207C0000200A
:1037B000BC000020C8020020BF000020D300002071
:1037C0001CB52448007818B901202249087006E089
:1037D00020480078012802D100201E4908701E48A8
:1037E000007878B91B48007860B91C4800681C490B
:1037F0000860FDF7BBFD00201849086019490870F2
:103800001949086013480078012809D11748102188
:103810000F236422CDE900104421A020FEF7E0FA36
:103820000C480078A8B9124810210F236422CDE972
:1038300000104421A020FEF7D3FA0D4810210F23D9
:103840004FF49672CDE900104FF4A0713720FEF7C7
:10385000C7FA1CBDB4000020B3000020AC0000205B
:103860007C000020BC000020C8020020BF00002017
:10387000D30000201CB51148007818B901200F4969
:10388000087006E00D480078012802D100200B499D
:1038900008700B481021CDE900100A49098837311A
:1038A00088B20F2364224FF4A071FEF799FA0548FD
:1038B00000681030034908601CBD0000BD000020F6
:1038C000CC020020C802002008B501218020FEF7AC
:1038D0004BFB48208DF803004FF6FF70ADF8000059
:1038E00069460248FDF736FF08BD0000001C014094
:1038F00008B52148006800EB8000012101EB400081
:103900001D49086010201D4900900988373188B290
:1039100001231A464FF4A071FEF718FA1748006801
:1039200010301649086016480078012805D115485E
:10393000007810B91448007898B11148007830B96F
:1039400010480078012802D10F48007848B10C488F
:10395000007878B90B48007860B90B4800780128E6
:1039600008D10A480078012804D109480078401C91
:103970000749087008BD0000AC000020C802002004
:10398000B0000020B1000020B2000020BD000020E7
:10399000BC00002008B52148006800EB800002212F
:1039A00001EB40001D49086010201D490090098866
:1039B000373188B2012302224FF4A071FEF7C6F915
:1039C000174800681030164908601648007801282A
:1039D00005D11548007810B91448007898B11148FD
:1039E000007830B910480078012802D10F480078DB
:1039F00048B10C48007878B90B48007860B90B489A
:103A00000078012808D10A480078012804D1094823
:103A10000078401C0749087008BD0000AC00002079
:103A2000C8020020B0000020B1000020B200002039
:103A3000BD000020BC00002008B52148006800EB54
:103A40008000032101EB40001D49086010201D4942
:103A500000900988373188B2012303224FF4A07106
:103A6000FEF774F9174800681030164908601648C8
:103A70000078012805D11548007810B9144800785D
:103A800098B11148007830B910480078012802D167
:103A90000F48007848B10C48007878B90B48007896
:103AA00060B90B480078012808D10A48007801283D
:103AB00004D109480078401C0749087008BD00007F
:103AC000AC000020C8020020B0000020B10000209F
:103AD000B2000020BD000020BC00002008B5214835
:103AE000006800EB8000042101EB40001D490860E4
:103AF00010201D4900900988373188B20123042223
:103B00004FF4A071FEF722F91748006810301649EB
:103B1000086016480078012805D11548007810B9CA
:103B20001448007898B11148007830B910480078EE
:103B3000012802D10F48007848B10C48007878B9C4
:103B40000B48007860B90B480078012808D10A4872
:103B50000078012804D109480078401C0749087002
:103B600008BD0000AC000020C8020020B00000200A
:103B7000B1000020B2000020BD000020BC000020E9
:103B800008B52048006800EB8000052101EB4000EB
:103B90001C49086010201C4900900988373188B200
:103BA000012305229101FEF7D1F817480068103073
:103BB0001549086015480078012805D11448007897
:103BC00010B91448007898B11048007830B91048FE
:103BD0000078012802D10F48007848B10B480078DE
:103BE00078B90B48007860B90A480078012808D1F4
:103BF00009480078012804D108480078401C07498A
:103C0000087008BDAC000020C8020020B0000020F1
:103C1000B1000020B2000020BD000020BC00002048
:103C200008B52148006800EB8000062101EB400048
:103C30001D49086010201D4900900988373188B25D
:103C4000012306224FF4A071FEF780F817480068A0
:103C500010301649086016480078012805D115482B
:103C6000007810B91448007898B11148007830B93C
:103C700010480078012802D10F48007848B10C485C
:103C8000007878B90B48007860B90B4800780128B3
:103C900008D10A480078012804D109480078401C5E
:103CA0000749087008BD0000AC000020C8020020D1
:103CB000B0000020B1000020B2000020BD000020B4
:103CC000BC00002008B52148006800EB80000721F7
:103CD00001EB40001D49086010201D490090098833
:103CE000373188B2012307224FF4A071FEF72EF876
:103CF00017480068103016490860164800780128F7
:103D000005D11548007810B91448007898B11148C9
:103D1000007830B910480078012802D10F480078A7
:103D200048B10C48007878B90B48007860B90B4866
:103D30000078012808D10A480078012804D10948F0
:103D40000078401C0749087008BD0000AC00002046
:103D5000C8020020B0000020B1000020B200002006
:103D6000BD000020BC00002008B52148006800EB21
:103D70008000082101EB40001D49086010201D490A
:103D800000900988373188B2012308224FF4A071CE
:103D9000FDF7DCFF17480068103016490860164828
:103DA0000078012805D11548007810B9144800782A
:103DB00098B11148007830B910480078012802D134
:103DC0000F48007848B10C48007878B90B48007863
:103DD00060B90B480078012808D10A48007801280A
:103DE00004D109480078401C0749087008BD00004C
:103DF000AC000020C8020020B0000020B10000206C
:103E0000B2000020BD000020BC00002008B5214801
:103E1000006800EB8000092101EB40001D490860AB
:103E200010201D4900900988373188B201230922EA
:103E30004FF4A071FDF78AFF17480068103016494B
:103E4000086016480078012805D11548007810B997
:103E50001448007898B11148007830B910480078BB
:103E6000012802D10F48007848B10C48007878B991
:103E70000B48007860B90B480078012808D10A483F
:103E80000078012804D109480078401C07490870CF
:103E900008BD0000AC000020C8020020B0000020D7
:103EA000B1000020B2000020BD000020BC000020B6
:103EB0002DE9FC417449886801F0B6F93030734946
:103EC000C8702E2008717049886801F0ADF9074666
:103ED00001F0E6F906466C488168304601F0D8FAF0
:103EE00005466B4901F008FA044601F09DF90A21E4
:103EF00090FBF1F201FB12003030644948716249D5
:103F0000886801F091F9074601F0CAF906465E4853
:103F10008168304601F0BCFA05465E4901F0ECF9D3
:103F2000044601F081F90A2190FBF1F201FB120035
:103F30003030564988710020C871084610210F237F
:103F40006422CDE9001000210846FDF749FF4E49E3
:103F5000C86801F069F930304F49C8702E200871E7
:103F60004949C86801F060F9074601F099F9064629
:103F70004548C168304601F08BFA0546444901F0D6
:103F8000BBF9044601F050F90A2190FBF1F201FB64
:103F900012003030404948713B49C86801F044F98B
:103FA000074601F07DF906463748C168304601F002
:103FB0006FFA0546374901F09FF9044601F034F9DC
:103FC0000A2190FBF1F201FB120030303249887176
:103FD0000020C871084610210F236422CDE900108B
:103FE00011210020FDF7FCFE2749086901F01CF9AA
:103FF00030302A49C8702E2008712349086901F021
:1040000013F9074601F04CF906461F48016930468E
:1040100001F03EFA05461E4901F06EF9044601F032
:1040200003F90A2190FBF1F201FB120030301B4929
:1040300048711549086901F0F7F8074601F030F9B1
:10404000064611480169304601F022FA0546114939
:1040500001F052F9044601F0E7F80A2190FBF1F271
:1040600001FB120030300D4988710020C8710846EC
:1040700010210F236422CDE9001022210020FDF73A
:10408000AFFEBDE8FC810000A403002080000020FA
:10409000000020410000C8428A0000209400002057
:1040A0002DE9FC413D48006801F0BEF8642190FB19
:1040B000F1F00A2190FBF1F201FB12003030384997
:1040C00088713648006801F0AFF80A2190FBF1F0E2
:1040D00090FBF1F201FB120030303149C8712F48DA
:1040E000006801F0A1F80A2190FBF1F201FB120037
:1040F00030302B4908722E2048722848006801F0A1
:1041000093F8074601F0CCF806462448016830468B
:1041100001F0BEF90546234901F0EEF8044601F02E
:1041200083F80A2190FBF1F201FB120030301C49A8
:1041300088721A48006801F077F8074601F0B0F875
:10414000064616480168304601F0A2F905461649B0
:1041500001F0D2F8044601F067F80A2190FBF1F271
:1041600001FB120030300E49C87200200873084667
:1041700010210F236422CDE9001033210020FDF728
:104180002FFE0A4810210F236422CDE9001044219C
:104190000020FDF725FEBDE8FC8100004000002066
:1041A00044000020000020410000C84258000020C8
:1041B00038B504464FF6FF701949009009888AB255
:1041C0001749098888B2FA236421FDF79FFCC4F1DE
:1041D000FA05ABB2124D2D88AAB2124D2D88A9B2A4
:1041E000114D2D88A8B2FDF70BFC0D480068401C4E
:1041F0000B4908600C480068401C0B490860C4F17A
:10420000FA000849086006480068B0F59F7F05DDA0
:1042100033200349086032200349086038BD00009C
:10422000A0000020A8000020A400002070B50546D2
:10423000322400BF08E0C5F1FA0291B2A0B24FF4F7
:104240007842FDF7CFFB641CB4F59F7FF3DDB4F536
:104250009F7F00DD322470BD08B54FF4165000F08A
:1042600013FA4FF4A060FDF73DFEFEF7ABFD00F042
:10427000A5F9FEF7EFFD00F073F9FDF73DFE00F044
:1042800027F9FEF73FFEFFF71FFB4FF4165000F033
:10429000FBF9FEF721F84FF6FF7040F2DF1340F212
:1042A0003F12002100900846FDF730FC62E0FFF766
:1042B000FFFDFFF7F5FE3048006800F0F1FF05460E
:1042C00000F094F8044600F0AFFF2C49086008465F
:1042D000008881B22A48FEF7C2FBFA233222642109
:1042E0001046FDF78DFBFA2340F23F1219463220AB
:1042F000FDF786FB0C2001230022F42100902520ED
:10430000FDF724FD0C2002231422E021009025203B
:10431000FDF71CFD0C2002232822CC210090252033
:10432000FDF714FD0C2002233C22B821009025202B
:10433000FDF70CFD0C2002235022A4210090252023
:10434000FDF704FD0C2003236422902100901E2021
:10435000FDF7FCFC0C20032378227C2100901E201A
:10436000FDF7F4FC4FF4AF73C8224FF4967132207E
:10437000FDF7AEFB9BE700000400002000000020DA
:10438000000800402DE9FF470D49086900F0FCFDD9
:1043900004460D460A49C86800F0F6FD06460F4679
:1043A0000749886800F0F0FD804642460B4605A0AC
:1043B000CDE90067CDE90245FBF75AFFBDE8FF876D
:1043C000A4030020202020202020202020202020A6
:1043D000204B703D252E32662C4B693D252E3266D2
:1043E0002C4B643D252E32660A0000002DE9F14F6A
:1043F00084B0049800F018FF31490860098888B239
:10440000FFF714FF2E4909682D4A9269881A00F0B7
:1044100047FF02902A49486900F042FF044602998A
:1044200001F036F803902649486800F039FF054648
:10443000029900F0D5FD044600F0F6FE20494860E0
:104440000869039900F058FF06461D49486800F0C6
:1044500027FF80461A48C168404600F04DFF0546D8
:1044600017498868029900F047FF0746294600F07F
:10447000B7FD0446314600F0B3FD0190029800F00C
:10448000D3FE0F494861019800F0CEFE0C498861C7
:10449000019800F079FD824600220A4B00F034FAC0
:1044A00080460022084B00F087FB06460022074B9F
:1044B00000F082F9044600F04DF905B0BDE8F08F38
:1044C000A403002000805D4000B8844000406F409D
:1044D00000B589B001210420FDF736FD0121292016
:1044E000FDF742FD18208DF823004FF48050ADF801
:1044F000200003208DF8220008A91748FDF72AF9AB
:1045000001210803FDF7B2F90020ADF81A00ADF85B
:10451000160040F28330ADF818000020ADF814000A
:1045200005A90E48FEF7CAFA7020ADF80400012074
:10453000ADF806000020ADF80C0001A90748FEF711
:1045400039FA08210548FEF781FA01210348FEF7F0
:10455000A5F909B000BD00000014014000080040AA
:104560001FB501211020FDF7EFFC40F28330ADF8BC
:1045700008004F20ADF8040001A90F48FEF79EFA8D
:10458000012211460C48FEF70BFA36208DF8000088
:1045900001208DF8030000208DF801008DF8020045
:1045A0006846FDF767FC01210348FEF777F9012112
:1045B0000148FEF76DF91FBD0010004000B589B03D
:1045C000012140F60D00FDF7CFFC18208DF82300E7
:1045D0004FF48070ADF8200003208DF8220008A968
:1045E0002648FDF7B7F818208DF823004FF4005047
:1045F000ADF8200003208DF8220008A92048FDF71F
:10460000A9F80020ADF81A00ADF8160040F283308A
:10461000ADF818000020ADF814008DF81C0005A9B5
:104620001848FEF74BFA0020ADF810006020ADF8F6
:1046300004000020ADF81200ADF80C000420ADF825
:1046400008000120ADF806000020ADF80E0001A919
:104650000C48FEF7AFF908210A48FEF7F7F90121E7
:104660000848FEF709F901210648FEF717F901216C
:104670000448FEF71FF909B000BD00000008014022
:10468000000C0140002C014010B586B00446012109
:1046900044F20400FDF768FC4FF40070ADF814001C
:1046A00003208DF8160018208DF8170005A91C4866
:1046B000FDF750F84FF48060ADF8140004208DF839
:1046C000170005A91648FDF745F825208DF80000CC
:1046D00003208DF801008DF8020001208DF8030001
:1046E0006846FDF7C7FB01940020ADF80800ADF85F
:1046F0000A00ADF80C00ADF810000C20ADF80E006B
:1047000001A90848FEF7CCFA012240F225510548DC
:10471000FEF7A0FA01210348FEF766FA06B010BDC5
:10472000000801400038014010B500290AD008787F
:10473000002807D005487844FCF71CFA002801D06F
:10474000002010BD0248784410BD0000FA26000089
:10475000F226000021F00042A2F16052B2F5801F63
:1047600001F0004328BFD2F17F6C0BD95FEA001C37
:1047700043EAC20242EB507018BF704728BF20F0D6
:1047800001007047B2F5801FBCBF184670474FEA62
:10479000410C1CF5001F02D2084600F074BE70B533
:1047A00000F0B4FA00000089FFF7F6BF4FF00040B8
:1047B000A0F580007047000010B591EA030F48BFD4
:1047C00083F0004300F1FE82841A71EB030C05D2E2
:1047D000121943EB0C03001B61EB0C01DFF824E121
:1047E0004FEA1154A4EB135C1EEA430F18BF9EEA74
:1047F000445F73D023EA0E03DCF1200E21EA04515A
:1048000043F4801332D322FA0CFE10EB0E0023FA8D
:104810000CFE41EB0E01CCF1200E03FA0EFE10EB64
:104820000E0051F10001B1F5801FCCF1200E32D203
:1048300001EB045112FA0EF2BDE8104058BF704768
:10484000401C38BF5FEA420218BF7047002814BFFF
:1048500020F0010041F100014FEA410313F5001F70
:1048600038BF7047A1F1C04100F09EBA012A43EB66
:104870000302ACF1200CDCF11F0E32BF4FF0000E32
:1048800023FA0CF310EB030041EB0451B4EB115F7E
:10489000D0D0A1EB045101F5801149085FEA300046
:1048A00001EB04510ED350F1000038BF12FA0EFE96
:1048B00008D1BDE81040C9E7401C38BF5FEA42029A
:1048C000CAD1C3E7BDE810404FEA410313F5001F0A
:1048D00038BF7047A1F1C04100F066BA9EEA445F5C
:1048E00008D011EA5E0FBDE8104004BF01F000419E
:1048F00000207047BDE8104070B500F007FA00BF17
:1049000064FBBE3E0000E0FF2DE9C04130B4DFF89B
:10491000A0C23CEA111418BF3CEA131400F0EC806A
:1049200081EA03051CEA111444EAD57418BF1CEA95
:10493000131500F0C780A4EB05044FF0004545EACD
:10494000C12145EAC32341EA505143EA525304F1DD
:104950007F74994204F500344FEAC0204FEAC22226
:1049600008BF904200F09C804FEA13650FF240169A
:10497000765D4FEA134506FB05F7C7F1807706FB26
:1049800007F74FEAD737A7FB03687642C8F58038A8
:10499000A7FB06CE38BFA8F1010807FB08E64FF0D9
:1049A000000EA6FB028CE6FB03CEDCF1000CCEF180
:1049B000004E38BFAEF1010EA6FB0C584FF00007B9
:1049C0004FF00005E6FB0E87A1FB08C6A0FB07CE53
:1049D00016EB0E0645F10005E1FB076515F1E04E0B
:1049E0007EBFA4F580345FEA46066D4116F180076C
:1049F00045F100054FEA17274FEA066647EA0567C3
:104A0000A6F1DE46B6F1805F4FEA15251FD938467C
:104A100024F0010C05EBC471BCF1FE6F01EB0C112D
:104A200002D8F0BCBDE8008124425CBF01F5801EC5
:104A30009EEAC47F02D4F0BCBDE80081244238D491
:104A4000F0BCA1F1C041BDE8004100F0ADB94FEAB2
:104A5000D22242EA43524FEAD323A7FB02864FEA0F
:104A6000D02040EA415007FB03661EEA0E0F4FEAD2
:104A7000D12105FB026658BFA6EB0056B6EB0056E7
:104A80004FEA520E4EEAC37E18EB0E0E56EB530E53
:104A9000BDD518EB02085E417F1C55F10005B6E755
:104AA0004FF480154FF000074FF000064FF000085C
:104AB000ADE7F0BC4FF0000001F1C04101F0004152
:104AC000BDE8008111EA0C1F0CEA131500D00CE0C0
:104AD00013EA0C1F00F025804FF00000F0BC81EAC3
:104AE000030101F00041BDE80081F0BCBDE80041D8
:104AF00081EA030100F058B9F0BCBDE8004170B58F
:104B000000F004F9097EFC3E00F007B881EA0301D9
:104B10004FF0000001F00041704781EA030100F00E
:104B200043B9F0BCBDE800414FF000002149704797
:104B3000FFFDFBF9F7F5F4F2F0EEEDEBE9E8E6E462
:104B4000E3E1E0DEDDDBDAD8D7D5D4D3D1D0CFCDE9
:104B5000CCCBCAC8C7C6C5C4C2C1C0BFBEBDBCBB22
:104B6000BAB9B8B7B6B5B4B3B2B1B0AFAEADACAB1D
:104B7000AAA9A8A8A7A6A5A4A3A3A2A1A09F9F9EF7
:104B80009D9C9C9B9A9999989797969595949393A9
:104B9000929191908F8F8E8E8D8C8C8B8B8A898940
:104BA00088888787868585848483838282818180C3
:104BB0000000FF070000F87FDFF848C170B51CEA6D
:104BC000111E1EBF1CEA13159EEA0C0F95EA0C0F6E
:104BD00000F06F8081EA030423EA4C134EEAD47E8E
:104BE00021EA4C1141F4801143F48013AE44A1FB3F
:104BF000024CA0FB0365AEF17F7E361955EB0C0528
:104C0000A1FB034C4CF10003A0FB021C16EB0C06AD
:104C1000654153F10003094218BF46F0010613F441
:104C2000007F0BD14FEA03314FEA0530340341EAEC
:104C3000155140EA16506FF003020AE04FEAC32113
:104C40004FEAC520F40241EA555140EA56506FF050
:104C5000020202EB2E4201EB025585EACE710AD028
:104C60005FEA440C18BF24F0004450F1000041F109
:104C7000000120EAD47040F2FE7C624500D270BD93
:104C8000A84214BF4FF080444FF04044002E08BFAC
:104C90000024BEF1806FA8BFA1F1C041BDE8704003
:104CA00080F282804FF0000001F1C04101F000412C
:104CB00070479EEA0C0F0CEA131518BF95EA0C0F0B
:104CC00006D04FF0000081EA030E0EF0004170BDE7
:104CD00000F01CF88900013E00F007B800F009B8A8
:104CE0004FEA430C5FEA5C5C08D081EA030100F004
:104CF0005BB84FEA410C5FEA5C5CF6D14FF0000014
:104D0000014970470000FF070000F87F0EF1020E16
:104D10002EF0030E5EF8046B364205D4012A43EBF5
:104D2000030515F5001F12D8012841EB010C1CF5F5
:104D3000001F0CD80ED14FEAD17C15F5001F0CEBEB
:104D40004C0C0CF1020C08BF4CEBD37C04E04FF090
:104D5000080C01E04FEAD37C0CEB4C0526FA05F673
:104D600006F00706B6F1040C06D20EEB860CBDE881
:104D700070404CF0010C6047DFE80CF0090B0202B8
:104D80004FF000414FF00000A1F5002170BD194621
:104D90001046012851EB010418BFD4F5001484BF5C
:104DA000002001F0004170BD0808A0F500114FEA95
:104DB0003101704710B591EA030F48BF83F00043FB
:104DC0003FF502AD841A71EB030C07D212198CF077
:104DD000004C43EB0C03001B61EB0C01DFF8A4E17A
:104DE0004FEA1154A4EB135C1EEA430F18BF9EEA6E
:104DF000445F00F0B08023EA6E03524221EA04517E
:104E0000C3EB6E0338BF5B1EDCF1200E25D322FA04
:104E10000CFE10EB0E0043FA0CFE41EB0E01CCF140
:104E2000200E03FA0EFE10EB0E0051F10001CCF142
:104E3000200E29D412FA0EF201EB0451BDE8104005
:104E400058BF7047401C1CBFB2F1004F704700288C
:104E50000CBF491C20F00100704712EB020E43EB1F
:104E6000030218BF4FF0010E4EEA4202ACF1200CD3
:104E7000DCF11E0E54D943FA0CFE10EB0E0051F17A
:104E8000FF31CCF11E0ED5D50EF1010E12FA0EFE39
:104E9000404141EB010101EB445C5FEA5C5C10D9ED
:104EA00010EBDE7001EB045138BFBEF1004FBDE8DE
:104EB000104018BF704700280CBF491C20F00100AB
:104EC000704730D24FEAD42C11F5001124F400645D
:104ED0001BD0B1FA81F20B3AA41AA41ED2F120031E
:104EE000914030FA03F31943904001EBCC71002C50
:104EF00001EB0451BDE81040A8BF704701F1C0416B
:104F00004FF0000001F000417047B0FA80F310FA52
:104F100003F100D110BDE41A173C4805C90AE4E7C3
:104F200001EB045110BD491001EB0451BDE81040E4
:104F30004FEA300002E04FF0000170474A0008BF1E
:104F40000042F8D0B2F5001F28BF704701F00041C1
:104F50004FF0000070479EEA445F07D011EA5E0FF1
:104F6000BDE8104004BF002100207047BDE810409C
:104F700070B5FFF7CBFE00BF40DFF63E83F0004187
:104F8000104670470000E0FF43004FEAD30C4FEAA1
:104F90003C0C43401FBF40070CF1605113F0FE4F23
:104FA00070471CF0006F03D100200CF000417047E7
:104FB0000CF0004343EA507010B540EACC0000F01A
:104FC0001CFA00BF000000924FEA0001FFF7ECBEA0
:104FD0004FF000414FF00000A1F5002170470000A4
:104FE00090EA010F48BF81F0004100F16282421A4D
:104FF0003CBF801A89184FEAD0524FF07F4C1CEA10
:10500000410FA2EBD15318BF9CEA026F00F03B8026
:105010004FF0004C4CEA00204CEA012121FA03FC3D
:1050200010EB0C0C1ED202F1FF325FEA1C2040EBA9
:10503000C25038BF70471CF07F0F4FEA400C18BFBA
:10504000BCF17F4F38BF7047C3F12003994008BFC0
:1050500020F00100BCF17F4F38BF7047A0F1C04085
:1050600000F011BA4FEA3C00000A40EBC25028BFE2
:105070001CF0FF0F4FEA400CE6D018BFBCF17F4F89
:1050800038BF7047EAE79CEA026F05D010EA5C0F70
:1050900008BF00F00040704710B500F0AEF900BF47
:1050A00064FBBE3E4FF47F0C1CEAD0121EBF1CEA0C
:1050B000D11392EA0C0F93EA0C0F00F0858090EA6E
:1050C000010F48BF42F4807240F4000C41F400002C
:1050D0002CF07F4120F07F4000B58142A2EB03021B
:1050E0000FF2081CACEB504EC0F100009EF800E03F
:1050F0004FEA4E0E00FB0EFC38BF49004FEA2C1C55
:1051000002F5FA020CFB0EF34FEACE1E4FEA112C09
:105110004FEAC1210EEB635E42EB22420EFB0CFC18
:105120004FEA1C5300FB03114FEA112C4FEA0131E7
:105130000EFB0CFC4FEADC4C00FB0C11C14228BFFB
:1051400009184CEB03335DF804EB10EB410143EB22
:10515000C250B2F57C0F38BF704729D512F0F00F5E
:105160001CBF00F1C04000F0004070470081828306
:105170008485868788898B8C8D8E8F919293959666
:1051800097999A9C9D9FA0A2A3A5A7A8AAACAEB0F0
:10519000B2B3B5B7B9BCBEC0C2C5C7C9CCCED1D4F5
:1051A000D7D9DCDFE2E6E9ECF0F3F7FAFE00000025
:1051B0004FEA400C0CF1807CBCF17E4F28BF704759
:1051C000B0F1C04000F05FB990EA010F0CEAD113D2
:1051D00048BF42F48072624538BF634507D213F47A
:1051E0007F0F16D080EA010000F00040704710B534
:1051F00000F003F9097EFC3E00F005B880EA0100EA
:1052000000F00040704780EA010000F0004000F02C
:105210003AB912F47F0F04BF0248704780EA0100D8
:1052200000F031B90000C07F41000B0ED3F19E02A7
:1052300008D950F400034FEA032323FA02F048BFD1
:105240004042704710B500F0D8F800BF4992248062
:10525000002070476FF0004282EA20007047000093
:10526000C10DD1F19E0206DB4FEA002343F000435B
:1052700023FA02F07047004207D54FEA4001B1F12E
:10528000FE4F02D24FF00000704710B500F0B5F8A5
:1052900049922480002070476FEA20007047000088
:1052A00010F0004148BF4042B0FA80F310FA03F218
:1052B000C3F19D030BD051EAC35101EB12205306F9
:1052C00038BF704700F1010008BF20F001007047AF
:1052D000B0FA80F310FA03F2C3F19D030AD0D905A6
:1052E00001EB1220530638BF704700F1010008BFE0
:1052F00020F00100704700004FF47F0C1CEAD01230
:105300001EBF1CEAD11392EA0C0F93EA0C0F00F0B7
:10531000478090EA010F48BF42F480724FF0004C82
:105320004CEA00204CEA012102EB0302A0FB01132E
:10533000A2F50002002918BF43F001035B0028BF5B
:105340004FEA330342EB22425FEA132C4CEBC2508C
:105350002EBFBCEB436FB2F57C0F70474FEA036C76
:10536000BCF1004F08BF20F00100B2F57C0F38BF40
:1053700070470BD582F0FF0212F5803FC8BF70471F
:1053800000F1C040D8BF00F00040704700F5000CAD
:105390005FEA4C0C48BF7047B0F1C04000F073B8F2
:1053A00090EA010F0CEAD11348BF42F480726245C3
:1053B00038BF634504D280EA010000F00040704726
:1053C00010B500F01AF800BF8900013E00F007B8E0
:1053D00000F009B85FEA410C5FEA1C6C08D080EA73
:1053E000010000F050B85FEA400C5FEA1C6CF6D197
:1053F0004FF00040A0F5800070470EF1020E2EF035
:10540000030E5EF8044B244204D44FEA4102B2F189
:105410007F4F11D84FEA4003B3F17F4F0CD80ED124
:105420004FEAD07CB2F17F4F0CEB4C0C0CF1020C2C
:1054300008BF4CEBD17C04E04FF0080C01E04FEAD0
:10544000D17C0CEB4C0324FA03F404F00704B4F110
:10545000040C06D20EEB840CBDE810404CF0010C9D
:105460006047DFE80CF0070802024FF00040A0F5AB
:10547000800010BD0846420018BFD2F1807288BF7C
:1054800000F0004010BDFF2141EAD050C005704738
:1054900080F0004090EA010F7FF5A9AD81F0004156
:1054A00000F007B890EA010F48BF81F000413FF5D6
:1054B0009EAD421A04D882F00042A0EB02001144D3
:1054C0004FEAD0524FF07F4C1CEA410FA2EBD15370
:1054D00018BF9CEA026F4AD04FF0004C4CEA002003
:1054E0004CEA012121FA03FCB0EB0C0C0FD412F0B2
:1054F000FE0F36D05FEA4C001DD5001240EBC250C3
:1055000038BF70471CF03F0F18BF70470BE0A2F187
:1055100001025FEA1C2040EBC25038BF70471CF00C
:105520007F0F18BF7047C3F12003994014BF401E7E
:1055300020F00100704780084FEA122308BF70472F
:10554000B0FA80FCA2EB0C02CCF1280C60FA0CF053
:1055500093EA122F04BF00EBC25070474FEAC370AA
:105560007047130A5FEADC1008BF7047F6E79CEA51
:10557000026F04D010EA5C0F08BF0020704710B51E
:10558000FFF73BFF40DFF63E81F000407047FBF73E
:1055900062B80000000000000000000000000000F1
:1055A00000003F400000000000000000300040000C
:1055B00030004000000009000BC03D000BC03D0062
:1055C000090018C024407FE022403180000018000C
:1055D00024C01B000D803240018003801C40274006
:1055E0001C80074000401000600000000000000028
:1055F00000000000000000001F802040402000004C
:10560000402020401F8000000000090006001F808D
:10561000060009000000040004003F8004000400AC
:105620000000001000600000000000000000040006
:10563000040004000400040000000000004000001A
:10564000000000000000002001C0060038004000FB
:1056500000001F802040204020401F8000000000EC
:1056600010403FC000400000000018C02140224010
:1056700024401840000010802040244024401B801B
:10568000000002000D0011003FC0014000003C80FE
:10569000244024402440238000001F8024402440D4
:1056A0003440038000003000200027C03800200074
:1056B00000001B802440244024401B8000001C006C
:1056C00022C0224022401F8000000000000008404D
:1056D0000000000000000000000004600000000066
:1056E0000000000004000A00110020804040090072
:1056F0000900090009000900000000004040208066
:1057000011000A00040018002000234024001800A3
:1057100000001F802040274029401F40000000401B
:1057200007C039000F0001C0004020403FC02440A6
:1057300024401B8000001F802040204020403080FB
:10574000000020403FC0204020401F80000020403B
:105750003FC024402E4030C0000020403FC02440C5
:105760002E00300000000F001080204022403380C7
:10577000020020403FC0040004003FC02040204001
:1057800020403FC02040204000000060202020201A
:105790003FC02000200020403FC024400B0030C00C
:1057A000204020403FC020400040004000C03FC09B
:1057B0003C0003C03C003FC0000020403FC00C4004
:1057C00023003FC020001F802040204020401F8039
:1057D000000020403FC024402400180000001F802B
:1057E0002140214020E01FA0000020403FC0244075
:1057F000260019C0004018C02440244022403180B7
:105800000000300020403FC0204030000000200059
:105810003F80004000403F80200020003E0001C04B
:10582000070038002000380007C03C0007C03800DF
:105830000000204039C0060039C020400000200090
:10584000384007C0384020000000304021C02640CA
:10585000384020C00000000000007FE040204020D1
:105860000000000070000C000380004000000000F9
:10587000402040207FE000000000000020004000A9
:1058800020000000000000100010001000100010A8
:1058900000100000000040000000000000000000B8
:1058A00002800540054003C0004020003FC0044086
:1058B00004400380000000000380044004400640D0
:1058C000000000000380044024403FC0004000006E
:1058D00003800540054003400000000004401FC055
:1058E000244024402000000002E0055005500650EE
:1058F000042020403FC00440040003C000400000DA
:10590000044027C0004000000000001000100410F8
:1059100027E00000000020403FC00140070004C015
:105920000440204020403FC000400040000007C02D
:10593000040007C0040003C00000044007C0044086
:10594000040003C0004000000380044004400380C2
:105950000000041007F00450044003800000000021
:1059600003800440045007F00010044007C00240C8
:10597000040004000000000006400540054004C08B
:105980000000000004001F800440004000000400EC
:1059900007800040044007C000400400070004C026
:1059A000018006000400060001C0070001C00600D7
:1059B0000000044006C0010006C0044000000410BE
:1059C000071004E00180060004000000044005C048
:1059D0000640044000000000000004007BE040207E
:1059E0000000000000000000FFF0000000000000C8
:1059F00040207BE0040000000000400080004000E8
:105A00002000200040000000000000000000000016
:105A10000000000000000000000000001FCC000C8F
:105A200000000000000000000800300060000800D6
:105A3000300060000000022003FC1E20022003FC56
:105A40001E200220000000000E1811043FFF1084E9
:105A50000C78000000000F0010840F3800C0077899
:105A600018840078000000780F8410C411240E9868
:105A700000E40084000808006800700000000000D6
:105A800000000000000000000000000007E01818FF
:105A9000200440020000000040022004181807E023
:105AA0000000000000000240024001800FF0018071
:105AB0000240024000000080008000800FF800805B
:105AC0000080008000000001000D000E00000000BA
:105AD00000000000000000000080008000800080C6
